{
	"LiquidityPoolFactory/LiquidityPoolFactory.sol": {
		"LiquidityPool": {
			"abi": [
				{
					"inputs": [
						{
							"internalType": "address",
							"name": "_tokenA",
							"type": "address"
						},
						{
							"internalType": "address",
							"name": "_tokenB",
							"type": "address"
						}
					],
					"stateMutability": "nonpayable",
					"type": "constructor"
				},
				{
					"anonymous": false,
					"inputs": [
						{
							"indexed": true,
							"internalType": "address",
							"name": "provider",
							"type": "address"
						},
						{
							"indexed": false,
							"internalType": "uint256",
							"name": "amountA",
							"type": "uint256"
						},
						{
							"indexed": false,
							"internalType": "uint256",
							"name": "amountB",
							"type": "uint256"
						},
						{
							"indexed": false,
							"internalType": "uint256",
							"name": "liquidity",
							"type": "uint256"
						}
					],
					"name": "LiquidityAdded",
					"type": "event"
				},
				{
					"anonymous": false,
					"inputs": [
						{
							"indexed": true,
							"internalType": "address",
							"name": "provider",
							"type": "address"
						},
						{
							"indexed": false,
							"internalType": "uint256",
							"name": "amountA",
							"type": "uint256"
						},
						{
							"indexed": false,
							"internalType": "uint256",
							"name": "amountB",
							"type": "uint256"
						},
						{
							"indexed": false,
							"internalType": "uint256",
							"name": "liquidity",
							"type": "uint256"
						}
					],
					"name": "LiquidityRemoved",
					"type": "event"
				},
				{
					"inputs": [
						{
							"internalType": "uint256",
							"name": "amountA",
							"type": "uint256"
						},
						{
							"internalType": "uint256",
							"name": "amountB",
							"type": "uint256"
						}
					],
					"name": "addLiquidity",
					"outputs": [],
					"stateMutability": "nonpayable",
					"type": "function"
				},
				{
					"inputs": [],
					"name": "getReserves",
					"outputs": [
						{
							"internalType": "uint256",
							"name": "",
							"type": "uint256"
						},
						{
							"internalType": "uint256",
							"name": "",
							"type": "uint256"
						}
					],
					"stateMutability": "view",
					"type": "function"
				},
				{
					"inputs": [
						{
							"internalType": "address",
							"name": "",
							"type": "address"
						}
					],
					"name": "liquidity",
					"outputs": [
						{
							"internalType": "uint256",
							"name": "",
							"type": "uint256"
						}
					],
					"stateMutability": "view",
					"type": "function"
				},
				{
					"inputs": [
						{
							"internalType": "uint256",
							"name": "liquidityAmount",
							"type": "uint256"
						}
					],
					"name": "removeLiquidity",
					"outputs": [],
					"stateMutability": "nonpayable",
					"type": "function"
				},
				{
					"inputs": [],
					"name": "tokenA",
					"outputs": [
						{
							"internalType": "contract IERC20",
							"name": "",
							"type": "address"
						}
					],
					"stateMutability": "view",
					"type": "function"
				},
				{
					"inputs": [],
					"name": "tokenB",
					"outputs": [
						{
							"internalType": "contract IERC20",
							"name": "",
							"type": "address"
						}
					],
					"stateMutability": "view",
					"type": "function"
				},
				{
					"inputs": [],
					"name": "totalTokenA",
					"outputs": [
						{
							"internalType": "uint256",
							"name": "",
							"type": "uint256"
						}
					],
					"stateMutability": "view",
					"type": "function"
				},
				{
					"inputs": [],
					"name": "totalTokenB",
					"outputs": [
						{
							"internalType": "uint256",
							"name": "",
							"type": "uint256"
						}
					],
					"stateMutability": "view",
					"type": "function"
				}
			],
			"devdoc": {
				"kind": "dev",
				"methods": {},
				"version": 1
			},
			"evm": {
				"assembly": "    /* \"LiquidityPoolFactory/LiquidityPoolFactory.sol\":1914:3895  contract LiquidityPool {... */\n  mstore(0x40, 0x80)\n    /* \"LiquidityPoolFactory/LiquidityPoolFactory.sol\":2329:2450  constructor(address _tokenA, address _tokenB) {... */\n  callvalue\n  dup1\n  iszero\n  tag_1\n  jumpi\n  0x00\n  dup1\n  revert\ntag_1:\n  pop\n  mload(0x40)\n  sub(codesize, bytecodeSize)\n  dup1\n  bytecodeSize\n  dup4\n  codecopy\n  dup2\n  dup2\n  add\n  0x40\n  mstore\n  dup2\n  add\n  swap1\n  tag_2\n  swap2\n  swap1\n  tag_3\n  jump\t// in\ntag_2:\n    /* \"LiquidityPoolFactory/LiquidityPoolFactory.sol\":2401:2408  _tokenA */\n  dup2\n    /* \"LiquidityPoolFactory/LiquidityPoolFactory.sol\":2385:2391  tokenA */\n  0x00\n  dup1\n    /* \"LiquidityPoolFactory/LiquidityPoolFactory.sol\":2385:2409  tokenA = IERC20(_tokenA) */\n  0x0100\n  exp\n  dup2\n  sload\n  dup2\n  0xffffffffffffffffffffffffffffffffffffffff\n  mul\n  not\n  and\n  swap1\n  dup4\n  0xffffffffffffffffffffffffffffffffffffffff\n  and\n  mul\n  or\n  swap1\n  sstore\n  pop\n    /* \"LiquidityPoolFactory/LiquidityPoolFactory.sol\":2435:2442  _tokenB */\n  dup1\n    /* \"LiquidityPoolFactory/LiquidityPoolFactory.sol\":2419:2425  tokenB */\n  0x01\n  0x00\n    /* \"LiquidityPoolFactory/LiquidityPoolFactory.sol\":2419:2443  tokenB = IERC20(_tokenB) */\n  0x0100\n  exp\n  dup2\n  sload\n  dup2\n  0xffffffffffffffffffffffffffffffffffffffff\n  mul\n  not\n  and\n  swap1\n  dup4\n  0xffffffffffffffffffffffffffffffffffffffff\n  and\n  mul\n  or\n  swap1\n  sstore\n  pop\n    /* \"LiquidityPoolFactory/LiquidityPoolFactory.sol\":2329:2450  constructor(address _tokenA, address _tokenB) {... */\n  pop\n  pop\n    /* \"LiquidityPoolFactory/LiquidityPoolFactory.sol\":1914:3895  contract LiquidityPool {... */\n  jump(tag_6)\n    /* \"#utility.yul\":88:205   */\ntag_8:\n    /* \"#utility.yul\":197:198   */\n  0x00\n    /* \"#utility.yul\":194:195   */\n  dup1\n    /* \"#utility.yul\":187:199   */\n  revert\n    /* \"#utility.yul\":334:460   */\ntag_10:\n    /* \"#utility.yul\":371:378   */\n  0x00\n    /* \"#utility.yul\":411:453   */\n  0xffffffffffffffffffffffffffffffffffffffff\n    /* \"#utility.yul\":404:409   */\n  dup3\n    /* \"#utility.yul\":400:454   */\n  and\n    /* \"#utility.yul\":389:454   */\n  swap1\n  pop\n    /* \"#utility.yul\":334:460   */\n  swap2\n  swap1\n  pop\n  jump\t// out\n    /* \"#utility.yul\":466:562   */\ntag_11:\n    /* \"#utility.yul\":503:510   */\n  0x00\n    /* \"#utility.yul\":532:556   */\n  tag_20\n    /* \"#utility.yul\":550:555   */\n  dup3\n    /* \"#utility.yul\":532:556   */\n  tag_10\n  jump\t// in\ntag_20:\n    /* \"#utility.yul\":521:556   */\n  swap1\n  pop\n    /* \"#utility.yul\":466:562   */\n  swap2\n  swap1\n  pop\n  jump\t// out\n    /* \"#utility.yul\":568:690   */\ntag_12:\n    /* \"#utility.yul\":641:665   */\n  tag_22\n    /* \"#utility.yul\":659:664   */\n  dup2\n    /* \"#utility.yul\":641:665   */\n  tag_11\n  jump\t// in\ntag_22:\n    /* \"#utility.yul\":634:639   */\n  dup2\n    /* \"#utility.yul\":631:666   */\n  eq\n    /* \"#utility.yul\":621:684   */\n  tag_23\n  jumpi\n    /* \"#utility.yul\":680:681   */\n  0x00\n    /* \"#utility.yul\":677:678   */\n  dup1\n    /* \"#utility.yul\":670:682   */\n  revert\n    /* \"#utility.yul\":621:684   */\ntag_23:\n    /* \"#utility.yul\":568:690   */\n  pop\n  jump\t// out\n    /* \"#utility.yul\":696:839   */\ntag_13:\n    /* \"#utility.yul\":753:758   */\n  0x00\n    /* \"#utility.yul\":784:790   */\n  dup2\n    /* \"#utility.yul\":778:791   */\n  mload\n    /* \"#utility.yul\":769:791   */\n  swap1\n  pop\n    /* \"#utility.yul\":800:833   */\n  tag_25\n    /* \"#utility.yul\":827:832   */\n  dup2\n    /* \"#utility.yul\":800:833   */\n  tag_12\n  jump\t// in\ntag_25:\n    /* \"#utility.yul\":696:839   */\n  swap3\n  swap2\n  pop\n  pop\n  jump\t// out\n    /* \"#utility.yul\":845:1352   */\ntag_3:\n    /* \"#utility.yul\":924:930   */\n  0x00\n    /* \"#utility.yul\":932:938   */\n  dup1\n    /* \"#utility.yul\":981:983   */\n  0x40\n    /* \"#utility.yul\":969:978   */\n  dup4\n    /* \"#utility.yul\":960:967   */\n  dup6\n    /* \"#utility.yul\":956:979   */\n  sub\n    /* \"#utility.yul\":952:984   */\n  slt\n    /* \"#utility.yul\":949:1068   */\n  iszero\n  tag_27\n  jumpi\n    /* \"#utility.yul\":987:1066   */\n  tag_28\n  tag_8\n  jump\t// in\ntag_28:\n    /* \"#utility.yul\":949:1068   */\ntag_27:\n    /* \"#utility.yul\":1107:1108   */\n  0x00\n    /* \"#utility.yul\":1132:1196   */\n  tag_29\n    /* \"#utility.yul\":1188:1195   */\n  dup6\n    /* \"#utility.yul\":1179:1185   */\n  dup3\n    /* \"#utility.yul\":1168:1177   */\n  dup7\n    /* \"#utility.yul\":1164:1186   */\n  add\n    /* \"#utility.yul\":1132:1196   */\n  tag_13\n  jump\t// in\ntag_29:\n    /* \"#utility.yul\":1122:1196   */\n  swap3\n  pop\n    /* \"#utility.yul\":1078:1206   */\n  pop\n    /* \"#utility.yul\":1245:1247   */\n  0x20\n    /* \"#utility.yul\":1271:1335   */\n  tag_30\n    /* \"#utility.yul\":1327:1334   */\n  dup6\n    /* \"#utility.yul\":1318:1324   */\n  dup3\n    /* \"#utility.yul\":1307:1316   */\n  dup7\n    /* \"#utility.yul\":1303:1325   */\n  add\n    /* \"#utility.yul\":1271:1335   */\n  tag_13\n  jump\t// in\ntag_30:\n    /* \"#utility.yul\":1261:1335   */\n  swap2\n  pop\n    /* \"#utility.yul\":1216:1345   */\n  pop\n    /* \"#utility.yul\":845:1352   */\n  swap3\n  pop\n  swap3\n  swap1\n  pop\n  jump\t// out\n    /* \"LiquidityPoolFactory/LiquidityPoolFactory.sol\":1914:3895  contract LiquidityPool {... */\ntag_6:\n  dataSize(sub_0)\n  dup1\n  dataOffset(sub_0)\n  0x00\n  codecopy\n  0x00\n  return\nstop\n\nsub_0: assembly {\n        /* \"LiquidityPoolFactory/LiquidityPoolFactory.sol\":1914:3895  contract LiquidityPool {... */\n      mstore(0x40, 0x80)\n      callvalue\n      dup1\n      iszero\n      tag_1\n      jumpi\n      0x00\n      dup1\n      revert\n    tag_1:\n      pop\n      jumpi(tag_2, lt(calldatasize, 0x04))\n      shr(0xe0, calldataload(0x00))\n      dup1\n      0x653f6c72\n      gt\n      tag_11\n      jumpi\n      dup1\n      0x653f6c72\n      eq\n      tag_7\n      jumpi\n      dup1\n      0x9c8f9f23\n      eq\n      tag_8\n      jumpi\n      dup1\n      0x9cd441da\n      eq\n      tag_9\n      jumpi\n      dup1\n      0xb8c876b1\n      eq\n      tag_10\n      jumpi\n      jump(tag_2)\n    tag_11:\n      dup1\n      0x0902f1ac\n      eq\n      tag_3\n      jumpi\n      dup1\n      0x0fc63d10\n      eq\n      tag_4\n      jumpi\n      dup1\n      0x439702af\n      eq\n      tag_5\n      jumpi\n      dup1\n      0x5f64b55b\n      eq\n      tag_6\n      jumpi\n    tag_2:\n      0x00\n      dup1\n      revert\n        /* \"LiquidityPoolFactory/LiquidityPoolFactory.sol\":3779:3893  function getReserves() external view returns (uint256, uint256) {... */\n    tag_3:\n      tag_12\n      tag_13\n      jump\t// in\n    tag_12:\n      mload(0x40)\n      tag_14\n      swap3\n      swap2\n      swap1\n      tag_15\n      jump\t// in\n    tag_14:\n      mload(0x40)\n      dup1\n      swap2\n      sub\n      swap1\n      return\n        /* \"LiquidityPoolFactory/LiquidityPoolFactory.sol\":1943:1963  IERC20 public tokenA */\n    tag_4:\n      tag_16\n      tag_17\n      jump\t// in\n    tag_16:\n      mload(0x40)\n      tag_18\n      swap2\n      swap1\n      tag_19\n      jump\t// in\n    tag_18:\n      mload(0x40)\n      dup1\n      swap2\n      sub\n      swap1\n      return\n        /* \"LiquidityPoolFactory/LiquidityPoolFactory.sol\":2032:2058  uint256 public totalTokenB */\n    tag_5:\n      tag_20\n      tag_21\n      jump\t// in\n    tag_20:\n      mload(0x40)\n      tag_22\n      swap2\n      swap1\n      tag_23\n      jump\t// in\n    tag_22:\n      mload(0x40)\n      dup1\n      swap2\n      sub\n      swap1\n      return\n        /* \"LiquidityPoolFactory/LiquidityPoolFactory.sol\":1969:1989  IERC20 public tokenB */\n    tag_6:\n      tag_24\n      tag_25\n      jump\t// in\n    tag_24:\n      mload(0x40)\n      tag_26\n      swap2\n      swap1\n      tag_19\n      jump\t// in\n    tag_26:\n      mload(0x40)\n      dup1\n      swap2\n      sub\n      swap1\n      return\n        /* \"LiquidityPoolFactory/LiquidityPoolFactory.sol\":2000:2026  uint256 public totalTokenA */\n    tag_7:\n      tag_27\n      tag_28\n      jump\t// in\n    tag_27:\n      mload(0x40)\n      tag_29\n      swap2\n      swap1\n      tag_23\n      jump\t// in\n    tag_29:\n      mload(0x40)\n      dup1\n      swap2\n      sub\n      swap1\n      return\n        /* \"LiquidityPoolFactory/LiquidityPoolFactory.sol\":3170:3773  function removeLiquidity(uint256 liquidityAmount) external {... */\n    tag_8:\n      tag_30\n      0x04\n      dup1\n      calldatasize\n      sub\n      dup2\n      add\n      swap1\n      tag_31\n      swap2\n      swap1\n      tag_32\n      jump\t// in\n    tag_31:\n      tag_33\n      jump\t// in\n    tag_30:\n      stop\n        /* \"LiquidityPoolFactory/LiquidityPoolFactory.sol\":2456:3164  function addLiquidity(uint256 amountA, uint256 amountB) external {... */\n    tag_9:\n      tag_34\n      0x04\n      dup1\n      calldatasize\n      sub\n      dup2\n      add\n      swap1\n      tag_35\n      swap2\n      swap1\n      tag_36\n      jump\t// in\n    tag_35:\n      tag_37\n      jump\t// in\n    tag_34:\n      stop\n        /* \"LiquidityPoolFactory/LiquidityPoolFactory.sol\":2065:2109  mapping(address => uint256) public liquidity */\n    tag_10:\n      tag_38\n      0x04\n      dup1\n      calldatasize\n      sub\n      dup2\n      add\n      swap1\n      tag_39\n      swap2\n      swap1\n      tag_40\n      jump\t// in\n    tag_39:\n      tag_41\n      jump\t// in\n    tag_38:\n      mload(0x40)\n      tag_42\n      swap2\n      swap1\n      tag_23\n      jump\t// in\n    tag_42:\n      mload(0x40)\n      dup1\n      swap2\n      sub\n      swap1\n      return\n        /* \"LiquidityPoolFactory/LiquidityPoolFactory.sol\":3779:3893  function getReserves() external view returns (uint256, uint256) {... */\n    tag_13:\n        /* \"LiquidityPoolFactory/LiquidityPoolFactory.sol\":3825:3832  uint256 */\n      0x00\n        /* \"LiquidityPoolFactory/LiquidityPoolFactory.sol\":3834:3841  uint256 */\n      dup1\n        /* \"LiquidityPoolFactory/LiquidityPoolFactory.sol\":3861:3872  totalTokenA */\n      sload(0x02)\n        /* \"LiquidityPoolFactory/LiquidityPoolFactory.sol\":3874:3885  totalTokenB */\n      sload(0x03)\n        /* \"LiquidityPoolFactory/LiquidityPoolFactory.sol\":3853:3886  return (totalTokenA, totalTokenB) */\n      swap2\n      pop\n      swap2\n      pop\n        /* \"LiquidityPoolFactory/LiquidityPoolFactory.sol\":3779:3893  function getReserves() external view returns (uint256, uint256) {... */\n      swap1\n      swap2\n      jump\t// out\n        /* \"LiquidityPoolFactory/LiquidityPoolFactory.sol\":1943:1963  IERC20 public tokenA */\n    tag_17:\n      0x00\n      dup1\n      sload\n      swap1\n      0x0100\n      exp\n      swap1\n      div\n      0xffffffffffffffffffffffffffffffffffffffff\n      and\n      dup2\n      jump\t// out\n        /* \"LiquidityPoolFactory/LiquidityPoolFactory.sol\":2032:2058  uint256 public totalTokenB */\n    tag_21:\n      sload(0x03)\n      dup2\n      jump\t// out\n        /* \"LiquidityPoolFactory/LiquidityPoolFactory.sol\":1969:1989  IERC20 public tokenB */\n    tag_25:\n      0x01\n      0x00\n      swap1\n      sload\n      swap1\n      0x0100\n      exp\n      swap1\n      div\n      0xffffffffffffffffffffffffffffffffffffffff\n      and\n      dup2\n      jump\t// out\n        /* \"LiquidityPoolFactory/LiquidityPoolFactory.sol\":2000:2026  uint256 public totalTokenA */\n    tag_28:\n      sload(0x02)\n      dup2\n      jump\t// out\n        /* \"LiquidityPoolFactory/LiquidityPoolFactory.sol\":3170:3773  function removeLiquidity(uint256 liquidityAmount) external {... */\n    tag_33:\n        /* \"LiquidityPoolFactory/LiquidityPoolFactory.sol\":3272:3287  liquidityAmount */\n      dup1\n        /* \"LiquidityPoolFactory/LiquidityPoolFactory.sol\":3247:3256  liquidity */\n      0x04\n        /* \"LiquidityPoolFactory/LiquidityPoolFactory.sol\":3247:3268  liquidity[msg.sender] */\n      0x00\n        /* \"LiquidityPoolFactory/LiquidityPoolFactory.sol\":3257:3267  msg.sender */\n      caller\n        /* \"LiquidityPoolFactory/LiquidityPoolFactory.sol\":3247:3268  liquidity[msg.sender] */\n      0xffffffffffffffffffffffffffffffffffffffff\n      and\n      0xffffffffffffffffffffffffffffffffffffffff\n      and\n      dup2\n      mstore\n      0x20\n      add\n      swap1\n      dup2\n      mstore\n      0x20\n      add\n      0x00\n      keccak256\n      sload\n        /* \"LiquidityPoolFactory/LiquidityPoolFactory.sol\":3247:3287  liquidity[msg.sender] >= liquidityAmount */\n      lt\n      iszero\n        /* \"LiquidityPoolFactory/LiquidityPoolFactory.sol\":3239:3312  require(liquidity[msg.sender] >= liquidityAmount, \"Not enough liquidity\") */\n      tag_45\n      jumpi\n      mload(0x40)\n      0x08c379a000000000000000000000000000000000000000000000000000000000\n      dup2\n      mstore\n      0x04\n      add\n      tag_46\n      swap1\n      tag_47\n      jump\t// in\n    tag_46:\n      mload(0x40)\n      dup1\n      swap2\n      sub\n      swap1\n      revert\n    tag_45:\n        /* \"LiquidityPoolFactory/LiquidityPoolFactory.sol\":3323:3338  uint256 amountA */\n      0x00\n        /* \"LiquidityPoolFactory/LiquidityPoolFactory.sol\":3375:3384  liquidity */\n      0x04\n        /* \"LiquidityPoolFactory/LiquidityPoolFactory.sol\":3375:3396  liquidity[msg.sender] */\n      0x00\n        /* \"LiquidityPoolFactory/LiquidityPoolFactory.sol\":3385:3395  msg.sender */\n      caller\n        /* \"LiquidityPoolFactory/LiquidityPoolFactory.sol\":3375:3396  liquidity[msg.sender] */\n      0xffffffffffffffffffffffffffffffffffffffff\n      and\n      0xffffffffffffffffffffffffffffffffffffffff\n      and\n      dup2\n      mstore\n      0x20\n      add\n      swap1\n      dup2\n      mstore\n      0x20\n      add\n      0x00\n      keccak256\n      sload\n        /* \"LiquidityPoolFactory/LiquidityPoolFactory.sol\":3360:3371  totalTokenA */\n      sload(0x02)\n        /* \"LiquidityPoolFactory/LiquidityPoolFactory.sol\":3342:3357  liquidityAmount */\n      dup4\n        /* \"LiquidityPoolFactory/LiquidityPoolFactory.sol\":3342:3371  liquidityAmount * totalTokenA */\n      tag_48\n      swap2\n      swap1\n      tag_49\n      jump\t// in\n    tag_48:\n        /* \"LiquidityPoolFactory/LiquidityPoolFactory.sol\":3341:3396  (liquidityAmount * totalTokenA) / liquidity[msg.sender] */\n      tag_50\n      swap2\n      swap1\n      tag_51\n      jump\t// in\n    tag_50:\n        /* \"LiquidityPoolFactory/LiquidityPoolFactory.sol\":3323:3396  uint256 amountA = (liquidityAmount * totalTokenA) / liquidity[msg.sender] */\n      swap1\n      pop\n        /* \"LiquidityPoolFactory/LiquidityPoolFactory.sol\":3406:3421  uint256 amountB */\n      0x00\n        /* \"LiquidityPoolFactory/LiquidityPoolFactory.sol\":3458:3467  liquidity */\n      0x04\n        /* \"LiquidityPoolFactory/LiquidityPoolFactory.sol\":3458:3479  liquidity[msg.sender] */\n      0x00\n        /* \"LiquidityPoolFactory/LiquidityPoolFactory.sol\":3468:3478  msg.sender */\n      caller\n        /* \"LiquidityPoolFactory/LiquidityPoolFactory.sol\":3458:3479  liquidity[msg.sender] */\n      0xffffffffffffffffffffffffffffffffffffffff\n      and\n      0xffffffffffffffffffffffffffffffffffffffff\n      and\n      dup2\n      mstore\n      0x20\n      add\n      swap1\n      dup2\n      mstore\n      0x20\n      add\n      0x00\n      keccak256\n      sload\n        /* \"LiquidityPoolFactory/LiquidityPoolFactory.sol\":3443:3454  totalTokenB */\n      sload(0x03)\n        /* \"LiquidityPoolFactory/LiquidityPoolFactory.sol\":3425:3440  liquidityAmount */\n      dup5\n        /* \"LiquidityPoolFactory/LiquidityPoolFactory.sol\":3425:3454  liquidityAmount * totalTokenB */\n      tag_52\n      swap2\n      swap1\n      tag_49\n      jump\t// in\n    tag_52:\n        /* \"LiquidityPoolFactory/LiquidityPoolFactory.sol\":3424:3479  (liquidityAmount * totalTokenB) / liquidity[msg.sender] */\n      tag_53\n      swap2\n      swap1\n      tag_51\n      jump\t// in\n    tag_53:\n        /* \"LiquidityPoolFactory/LiquidityPoolFactory.sol\":3406:3479  uint256 amountB = (liquidityAmount * totalTokenB) / liquidity[msg.sender] */\n      swap1\n      pop\n        /* \"LiquidityPoolFactory/LiquidityPoolFactory.sol\":3515:3530  liquidityAmount */\n      dup3\n        /* \"LiquidityPoolFactory/LiquidityPoolFactory.sol\":3490:3499  liquidity */\n      0x04\n        /* \"LiquidityPoolFactory/LiquidityPoolFactory.sol\":3490:3511  liquidity[msg.sender] */\n      0x00\n        /* \"LiquidityPoolFactory/LiquidityPoolFactory.sol\":3500:3510  msg.sender */\n      caller\n        /* \"LiquidityPoolFactory/LiquidityPoolFactory.sol\":3490:3511  liquidity[msg.sender] */\n      0xffffffffffffffffffffffffffffffffffffffff\n      and\n      0xffffffffffffffffffffffffffffffffffffffff\n      and\n      dup2\n      mstore\n      0x20\n      add\n      swap1\n      dup2\n      mstore\n      0x20\n      add\n      0x00\n      keccak256\n      0x00\n        /* \"LiquidityPoolFactory/LiquidityPoolFactory.sol\":3490:3530  liquidity[msg.sender] -= liquidityAmount */\n      dup3\n      dup3\n      sload\n      tag_54\n      swap2\n      swap1\n      tag_55\n      jump\t// in\n    tag_54:\n      swap3\n      pop\n      pop\n      dup2\n      swap1\n      sstore\n      pop\n        /* \"LiquidityPoolFactory/LiquidityPoolFactory.sol\":3555:3562  amountA */\n      dup2\n        /* \"LiquidityPoolFactory/LiquidityPoolFactory.sol\":3540:3551  totalTokenA */\n      0x02\n      0x00\n        /* \"LiquidityPoolFactory/LiquidityPoolFactory.sol\":3540:3562  totalTokenA -= amountA */\n      dup3\n      dup3\n      sload\n      tag_56\n      swap2\n      swap1\n      tag_55\n      jump\t// in\n    tag_56:\n      swap3\n      pop\n      pop\n      dup2\n      swap1\n      sstore\n      pop\n        /* \"LiquidityPoolFactory/LiquidityPoolFactory.sol\":3587:3594  amountB */\n      dup1\n        /* \"LiquidityPoolFactory/LiquidityPoolFactory.sol\":3572:3583  totalTokenB */\n      0x03\n      0x00\n        /* \"LiquidityPoolFactory/LiquidityPoolFactory.sol\":3572:3594  totalTokenB -= amountB */\n      dup3\n      dup3\n      sload\n      tag_57\n      swap2\n      swap1\n      tag_55\n      jump\t// in\n    tag_57:\n      swap3\n      pop\n      pop\n      dup2\n      swap1\n      sstore\n      pop\n        /* \"LiquidityPoolFactory/LiquidityPoolFactory.sol\":3605:3611  tokenA */\n      0x00\n      dup1\n      sload\n      swap1\n      0x0100\n      exp\n      swap1\n      div\n      0xffffffffffffffffffffffffffffffffffffffff\n      and\n        /* \"LiquidityPoolFactory/LiquidityPoolFactory.sol\":3605:3620  tokenA.transfer */\n      0xffffffffffffffffffffffffffffffffffffffff\n      and\n      0xa9059cbb\n        /* \"LiquidityPoolFactory/LiquidityPoolFactory.sol\":3621:3631  msg.sender */\n      caller\n        /* \"LiquidityPoolFactory/LiquidityPoolFactory.sol\":3633:3640  amountA */\n      dup5\n        /* \"LiquidityPoolFactory/LiquidityPoolFactory.sol\":3605:3641  tokenA.transfer(msg.sender, amountA) */\n      mload(0x40)\n      dup4\n      0xffffffff\n      and\n      0xe0\n      shl\n      dup2\n      mstore\n      0x04\n      add\n      tag_58\n      swap3\n      swap2\n      swap1\n      tag_59\n      jump\t// in\n    tag_58:\n      0x20\n      mload(0x40)\n      dup1\n      dup4\n      sub\n      dup2\n      0x00\n      dup8\n      gas\n      call\n      iszero\n      dup1\n      iszero\n      tag_61\n      jumpi\n      returndatasize\n      0x00\n      dup1\n      returndatacopy\n      revert(0x00, returndatasize)\n    tag_61:\n      pop\n      pop\n      pop\n      pop\n      mload(0x40)\n      returndatasize\n      not(0x1f)\n      0x1f\n      dup3\n      add\n      and\n      dup3\n      add\n      dup1\n      0x40\n      mstore\n      pop\n      dup2\n      add\n      swap1\n      tag_62\n      swap2\n      swap1\n      tag_63\n      jump\t// in\n    tag_62:\n      pop\n        /* \"LiquidityPoolFactory/LiquidityPoolFactory.sol\":3651:3657  tokenB */\n      0x01\n      0x00\n      swap1\n      sload\n      swap1\n      0x0100\n      exp\n      swap1\n      div\n      0xffffffffffffffffffffffffffffffffffffffff\n      and\n        /* \"LiquidityPoolFactory/LiquidityPoolFactory.sol\":3651:3666  tokenB.transfer */\n      0xffffffffffffffffffffffffffffffffffffffff\n      and\n      0xa9059cbb\n        /* \"LiquidityPoolFactory/LiquidityPoolFactory.sol\":3667:3677  msg.sender */\n      caller\n        /* \"LiquidityPoolFactory/LiquidityPoolFactory.sol\":3679:3686  amountB */\n      dup4\n        /* \"LiquidityPoolFactory/LiquidityPoolFactory.sol\":3651:3687  tokenB.transfer(msg.sender, amountB) */\n      mload(0x40)\n      dup4\n      0xffffffff\n      and\n      0xe0\n      shl\n      dup2\n      mstore\n      0x04\n      add\n      tag_64\n      swap3\n      swap2\n      swap1\n      tag_59\n      jump\t// in\n    tag_64:\n      0x20\n      mload(0x40)\n      dup1\n      dup4\n      sub\n      dup2\n      0x00\n      dup8\n      gas\n      call\n      iszero\n      dup1\n      iszero\n      tag_66\n      jumpi\n      returndatasize\n      0x00\n      dup1\n      returndatacopy\n      revert(0x00, returndatasize)\n    tag_66:\n      pop\n      pop\n      pop\n      pop\n      mload(0x40)\n      returndatasize\n      not(0x1f)\n      0x1f\n      dup3\n      add\n      and\n      dup3\n      add\n      dup1\n      0x40\n      mstore\n      pop\n      dup2\n      add\n      swap1\n      tag_67\n      swap2\n      swap1\n      tag_63\n      jump\t// in\n    tag_67:\n      pop\n        /* \"LiquidityPoolFactory/LiquidityPoolFactory.sol\":3720:3730  msg.sender */\n      caller\n        /* \"LiquidityPoolFactory/LiquidityPoolFactory.sol\":3703:3766  LiquidityRemoved(msg.sender, amountA, amountB, liquidityAmount) */\n      0xffffffffffffffffffffffffffffffffffffffff\n      and\n      0x1dc8bb69df2b8e91fbdcbfcf93d951b3f0000f085a95fe3f7946d6161439245d\n        /* \"LiquidityPoolFactory/LiquidityPoolFactory.sol\":3732:3739  amountA */\n      dup4\n        /* \"LiquidityPoolFactory/LiquidityPoolFactory.sol\":3741:3748  amountB */\n      dup4\n        /* \"LiquidityPoolFactory/LiquidityPoolFactory.sol\":3750:3765  liquidityAmount */\n      dup7\n        /* \"LiquidityPoolFactory/LiquidityPoolFactory.sol\":3703:3766  LiquidityRemoved(msg.sender, amountA, amountB, liquidityAmount) */\n      mload(0x40)\n      tag_68\n      swap4\n      swap3\n      swap2\n      swap1\n      tag_69\n      jump\t// in\n    tag_68:\n      mload(0x40)\n      dup1\n      swap2\n      sub\n      swap1\n      log2\n        /* \"LiquidityPoolFactory/LiquidityPoolFactory.sol\":3229:3773  {... */\n      pop\n      pop\n        /* \"LiquidityPoolFactory/LiquidityPoolFactory.sol\":3170:3773  function removeLiquidity(uint256 liquidityAmount) external {... */\n      pop\n      jump\t// out\n        /* \"LiquidityPoolFactory/LiquidityPoolFactory.sol\":2456:3164  function addLiquidity(uint256 amountA, uint256 amountB) external {... */\n    tag_37:\n        /* \"LiquidityPoolFactory/LiquidityPoolFactory.sol\":2549:2550  0 */\n      0x00\n        /* \"LiquidityPoolFactory/LiquidityPoolFactory.sol\":2539:2546  amountA */\n      dup3\n        /* \"LiquidityPoolFactory/LiquidityPoolFactory.sol\":2539:2550  amountA > 0 */\n      gt\n        /* \"LiquidityPoolFactory/LiquidityPoolFactory.sol\":2539:2565  amountA > 0 && amountB > 0 */\n      dup1\n      iszero\n      tag_71\n      jumpi\n      pop\n        /* \"LiquidityPoolFactory/LiquidityPoolFactory.sol\":2564:2565  0 */\n      0x00\n        /* \"LiquidityPoolFactory/LiquidityPoolFactory.sol\":2554:2561  amountB */\n      dup2\n        /* \"LiquidityPoolFactory/LiquidityPoolFactory.sol\":2554:2565  amountB > 0 */\n      gt\n        /* \"LiquidityPoolFactory/LiquidityPoolFactory.sol\":2539:2565  amountA > 0 && amountB > 0 */\n    tag_71:\n        /* \"LiquidityPoolFactory/LiquidityPoolFactory.sol\":2531:2603  require(amountA > 0 && amountB > 0, \"Amounts must be greater than zero\") */\n      tag_72\n      jumpi\n      mload(0x40)\n      0x08c379a000000000000000000000000000000000000000000000000000000000\n      dup2\n      mstore\n      0x04\n      add\n      tag_73\n      swap1\n      tag_74\n      jump\t// in\n    tag_73:\n      mload(0x40)\n      dup1\n      swap2\n      sub\n      swap1\n      revert\n    tag_72:\n        /* \"LiquidityPoolFactory/LiquidityPoolFactory.sol\":2614:2620  tokenA */\n      0x00\n      dup1\n      sload\n      swap1\n      0x0100\n      exp\n      swap1\n      div\n      0xffffffffffffffffffffffffffffffffffffffff\n      and\n        /* \"LiquidityPoolFactory/LiquidityPoolFactory.sol\":2614:2633  tokenA.transferFrom */\n      0xffffffffffffffffffffffffffffffffffffffff\n      and\n      0x23b872dd\n        /* \"LiquidityPoolFactory/LiquidityPoolFactory.sol\":2634:2644  msg.sender */\n      caller\n        /* \"LiquidityPoolFactory/LiquidityPoolFactory.sol\":2654:2658  this */\n      address\n        /* \"LiquidityPoolFactory/LiquidityPoolFactory.sol\":2661:2668  amountA */\n      dup6\n        /* \"LiquidityPoolFactory/LiquidityPoolFactory.sol\":2614:2669  tokenA.transferFrom(msg.sender, address(this), amountA) */\n      mload(0x40)\n      dup5\n      0xffffffff\n      and\n      0xe0\n      shl\n      dup2\n      mstore\n      0x04\n      add\n      tag_75\n      swap4\n      swap3\n      swap2\n      swap1\n      tag_76\n      jump\t// in\n    tag_75:\n      0x20\n      mload(0x40)\n      dup1\n      dup4\n      sub\n      dup2\n      0x00\n      dup8\n      gas\n      call\n      iszero\n      dup1\n      iszero\n      tag_78\n      jumpi\n      returndatasize\n      0x00\n      dup1\n      returndatacopy\n      revert(0x00, returndatasize)\n    tag_78:\n      pop\n      pop\n      pop\n      pop\n      mload(0x40)\n      returndatasize\n      not(0x1f)\n      0x1f\n      dup3\n      add\n      and\n      dup3\n      add\n      dup1\n      0x40\n      mstore\n      pop\n      dup2\n      add\n      swap1\n      tag_79\n      swap2\n      swap1\n      tag_63\n      jump\t// in\n    tag_79:\n      pop\n        /* \"LiquidityPoolFactory/LiquidityPoolFactory.sol\":2679:2685  tokenB */\n      0x01\n      0x00\n      swap1\n      sload\n      swap1\n      0x0100\n      exp\n      swap1\n      div\n      0xffffffffffffffffffffffffffffffffffffffff\n      and\n        /* \"LiquidityPoolFactory/LiquidityPoolFactory.sol\":2679:2698  tokenB.transferFrom */\n      0xffffffffffffffffffffffffffffffffffffffff\n      and\n      0x23b872dd\n        /* \"LiquidityPoolFactory/LiquidityPoolFactory.sol\":2699:2709  msg.sender */\n      caller\n        /* \"LiquidityPoolFactory/LiquidityPoolFactory.sol\":2719:2723  this */\n      address\n        /* \"LiquidityPoolFactory/LiquidityPoolFactory.sol\":2726:2733  amountB */\n      dup5\n        /* \"LiquidityPoolFactory/LiquidityPoolFactory.sol\":2679:2734  tokenB.transferFrom(msg.sender, address(this), amountB) */\n      mload(0x40)\n      dup5\n      0xffffffff\n      and\n      0xe0\n      shl\n      dup2\n      mstore\n      0x04\n      add\n      tag_80\n      swap4\n      swap3\n      swap2\n      swap1\n      tag_76\n      jump\t// in\n    tag_80:\n      0x20\n      mload(0x40)\n      dup1\n      dup4\n      sub\n      dup2\n      0x00\n      dup8\n      gas\n      call\n      iszero\n      dup1\n      iszero\n      tag_82\n      jumpi\n      returndatasize\n      0x00\n      dup1\n      returndatacopy\n      revert(0x00, returndatasize)\n    tag_82:\n      pop\n      pop\n      pop\n      pop\n      mload(0x40)\n      returndatasize\n      not(0x1f)\n      0x1f\n      dup3\n      add\n      and\n      dup3\n      add\n      dup1\n      0x40\n      mstore\n      pop\n      dup2\n      add\n      swap1\n      tag_83\n      swap2\n      swap1\n      tag_63\n      jump\t// in\n    tag_83:\n      pop\n        /* \"LiquidityPoolFactory/LiquidityPoolFactory.sol\":2745:2768  uint256 liquidityTokens */\n      0x00\n        /* \"LiquidityPoolFactory/LiquidityPoolFactory.sol\":2797:2798  0 */\n      dup1\n        /* \"LiquidityPoolFactory/LiquidityPoolFactory.sol\":2782:2793  totalTokenA */\n      sload(0x02)\n        /* \"LiquidityPoolFactory/LiquidityPoolFactory.sol\":2782:2798  totalTokenA == 0 */\n      eq\n        /* \"LiquidityPoolFactory/LiquidityPoolFactory.sol\":2782:2818  totalTokenA == 0 && totalTokenB == 0 */\n      dup1\n      iszero\n      tag_84\n      jumpi\n      pop\n        /* \"LiquidityPoolFactory/LiquidityPoolFactory.sol\":2817:2818  0 */\n      0x00\n        /* \"LiquidityPoolFactory/LiquidityPoolFactory.sol\":2802:2813  totalTokenB */\n      sload(0x03)\n        /* \"LiquidityPoolFactory/LiquidityPoolFactory.sol\":2802:2818  totalTokenB == 0 */\n      eq\n        /* \"LiquidityPoolFactory/LiquidityPoolFactory.sol\":2782:2818  totalTokenA == 0 && totalTokenB == 0 */\n    tag_84:\n        /* \"LiquidityPoolFactory/LiquidityPoolFactory.sol\":2778:2966  if (totalTokenA == 0 && totalTokenB == 0) {... */\n      iszero\n      tag_85\n      jumpi\n        /* \"LiquidityPoolFactory/LiquidityPoolFactory.sol\":2862:2869  amountB */\n      dup2\n        /* \"LiquidityPoolFactory/LiquidityPoolFactory.sol\":2852:2859  amountA */\n      dup4\n        /* \"LiquidityPoolFactory/LiquidityPoolFactory.sol\":2852:2869  amountA + amountB */\n      tag_86\n      swap2\n      swap1\n      tag_87\n      jump\t// in\n    tag_86:\n        /* \"LiquidityPoolFactory/LiquidityPoolFactory.sol\":2834:2869  liquidityTokens = amountA + amountB */\n      swap1\n      pop\n        /* \"LiquidityPoolFactory/LiquidityPoolFactory.sol\":2778:2966  if (totalTokenA == 0 && totalTokenB == 0) {... */\n      jump(tag_88)\n    tag_85:\n        /* \"LiquidityPoolFactory/LiquidityPoolFactory.sol\":2944:2955  totalTokenB */\n      sload(0x03)\n        /* \"LiquidityPoolFactory/LiquidityPoolFactory.sol\":2929:2940  totalTokenA */\n      sload(0x02)\n        /* \"LiquidityPoolFactory/LiquidityPoolFactory.sol\":2919:2926  amountA */\n      dup5\n        /* \"LiquidityPoolFactory/LiquidityPoolFactory.sol\":2919:2940  amountA * totalTokenA */\n      tag_89\n      swap2\n      swap1\n      tag_49\n      jump\t// in\n    tag_89:\n        /* \"LiquidityPoolFactory/LiquidityPoolFactory.sol\":2918:2955  (amountA * totalTokenA) / totalTokenB */\n      tag_90\n      swap2\n      swap1\n      tag_51\n      jump\t// in\n    tag_90:\n        /* \"LiquidityPoolFactory/LiquidityPoolFactory.sol\":2900:2955  liquidityTokens = (amountA * totalTokenA) / totalTokenB */\n      swap1\n      pop\n        /* \"LiquidityPoolFactory/LiquidityPoolFactory.sol\":2778:2966  if (totalTokenA == 0 && totalTokenB == 0) {... */\n    tag_88:\n        /* \"LiquidityPoolFactory/LiquidityPoolFactory.sol\":2991:2998  amountA */\n      dup3\n        /* \"LiquidityPoolFactory/LiquidityPoolFactory.sol\":2976:2987  totalTokenA */\n      0x02\n      0x00\n        /* \"LiquidityPoolFactory/LiquidityPoolFactory.sol\":2976:2998  totalTokenA += amountA */\n      dup3\n      dup3\n      sload\n      tag_91\n      swap2\n      swap1\n      tag_87\n      jump\t// in\n    tag_91:\n      swap3\n      pop\n      pop\n      dup2\n      swap1\n      sstore\n      pop\n        /* \"LiquidityPoolFactory/LiquidityPoolFactory.sol\":3023:3030  amountB */\n      dup2\n        /* \"LiquidityPoolFactory/LiquidityPoolFactory.sol\":3008:3019  totalTokenB */\n      0x03\n      0x00\n        /* \"LiquidityPoolFactory/LiquidityPoolFactory.sol\":3008:3030  totalTokenB += amountB */\n      dup3\n      dup3\n      sload\n      tag_92\n      swap2\n      swap1\n      tag_87\n      jump\t// in\n    tag_92:\n      swap3\n      pop\n      pop\n      dup2\n      swap1\n      sstore\n      pop\n        /* \"LiquidityPoolFactory/LiquidityPoolFactory.sol\":3065:3080  liquidityTokens */\n      dup1\n        /* \"LiquidityPoolFactory/LiquidityPoolFactory.sol\":3040:3049  liquidity */\n      0x04\n        /* \"LiquidityPoolFactory/LiquidityPoolFactory.sol\":3040:3061  liquidity[msg.sender] */\n      0x00\n        /* \"LiquidityPoolFactory/LiquidityPoolFactory.sol\":3050:3060  msg.sender */\n      caller\n        /* \"LiquidityPoolFactory/LiquidityPoolFactory.sol\":3040:3061  liquidity[msg.sender] */\n      0xffffffffffffffffffffffffffffffffffffffff\n      and\n      0xffffffffffffffffffffffffffffffffffffffff\n      and\n      dup2\n      mstore\n      0x20\n      add\n      swap1\n      dup2\n      mstore\n      0x20\n      add\n      0x00\n      keccak256\n      0x00\n        /* \"LiquidityPoolFactory/LiquidityPoolFactory.sol\":3040:3080  liquidity[msg.sender] += liquidityTokens */\n      dup3\n      dup3\n      sload\n      tag_93\n      swap2\n      swap1\n      tag_87\n      jump\t// in\n    tag_93:\n      swap3\n      pop\n      pop\n      dup2\n      swap1\n      sstore\n      pop\n        /* \"LiquidityPoolFactory/LiquidityPoolFactory.sol\":3111:3121  msg.sender */\n      caller\n        /* \"LiquidityPoolFactory/LiquidityPoolFactory.sol\":3096:3157  LiquidityAdded(msg.sender, amountA, amountB, liquidityTokens) */\n      0xffffffffffffffffffffffffffffffffffffffff\n      and\n      0x64b83944e79c3ce8d4c297411de637c3e102d064677aac0c163976ebdcd6f50e\n        /* \"LiquidityPoolFactory/LiquidityPoolFactory.sol\":3123:3130  amountA */\n      dup5\n        /* \"LiquidityPoolFactory/LiquidityPoolFactory.sol\":3132:3139  amountB */\n      dup5\n        /* \"LiquidityPoolFactory/LiquidityPoolFactory.sol\":3141:3156  liquidityTokens */\n      dup5\n        /* \"LiquidityPoolFactory/LiquidityPoolFactory.sol\":3096:3157  LiquidityAdded(msg.sender, amountA, amountB, liquidityTokens) */\n      mload(0x40)\n      tag_94\n      swap4\n      swap3\n      swap2\n      swap1\n      tag_69\n      jump\t// in\n    tag_94:\n      mload(0x40)\n      dup1\n      swap2\n      sub\n      swap1\n      log2\n        /* \"LiquidityPoolFactory/LiquidityPoolFactory.sol\":2521:3164  {... */\n      pop\n        /* \"LiquidityPoolFactory/LiquidityPoolFactory.sol\":2456:3164  function addLiquidity(uint256 amountA, uint256 amountB) external {... */\n      pop\n      pop\n      jump\t// out\n        /* \"LiquidityPoolFactory/LiquidityPoolFactory.sol\":2065:2109  mapping(address => uint256) public liquidity */\n    tag_41:\n      mstore(0x20, 0x04)\n      dup1\n      0x00\n      mstore\n      keccak256(0x00, 0x40)\n      0x00\n      swap2\n      pop\n      swap1\n      pop\n      sload\n      dup2\n      jump\t// out\n        /* \"#utility.yul\":7:84   */\n    tag_95:\n        /* \"#utility.yul\":44:51   */\n      0x00\n        /* \"#utility.yul\":73:78   */\n      dup2\n        /* \"#utility.yul\":62:78   */\n      swap1\n      pop\n        /* \"#utility.yul\":7:84   */\n      swap2\n      swap1\n      pop\n      jump\t// out\n        /* \"#utility.yul\":90:208   */\n    tag_96:\n        /* \"#utility.yul\":177:201   */\n      tag_125\n        /* \"#utility.yul\":195:200   */\n      dup2\n        /* \"#utility.yul\":177:201   */\n      tag_95\n      jump\t// in\n    tag_125:\n        /* \"#utility.yul\":172:175   */\n      dup3\n        /* \"#utility.yul\":165:202   */\n      mstore\n        /* \"#utility.yul\":90:208   */\n      pop\n      pop\n      jump\t// out\n        /* \"#utility.yul\":214:546   */\n    tag_15:\n        /* \"#utility.yul\":335:339   */\n      0x00\n        /* \"#utility.yul\":373:375   */\n      0x40\n        /* \"#utility.yul\":362:371   */\n      dup3\n        /* \"#utility.yul\":358:376   */\n      add\n        /* \"#utility.yul\":350:376   */\n      swap1\n      pop\n        /* \"#utility.yul\":386:457   */\n      tag_127\n        /* \"#utility.yul\":454:455   */\n      0x00\n        /* \"#utility.yul\":443:452   */\n      dup4\n        /* \"#utility.yul\":439:456   */\n      add\n        /* \"#utility.yul\":430:436   */\n      dup6\n        /* \"#utility.yul\":386:457   */\n      tag_96\n      jump\t// in\n    tag_127:\n        /* \"#utility.yul\":467:539   */\n      tag_128\n        /* \"#utility.yul\":535:537   */\n      0x20\n        /* \"#utility.yul\":524:533   */\n      dup4\n        /* \"#utility.yul\":520:538   */\n      add\n        /* \"#utility.yul\":511:517   */\n      dup5\n        /* \"#utility.yul\":467:539   */\n      tag_96\n      jump\t// in\n    tag_128:\n        /* \"#utility.yul\":214:546   */\n      swap4\n      swap3\n      pop\n      pop\n      pop\n      jump\t// out\n        /* \"#utility.yul\":552:678   */\n    tag_97:\n        /* \"#utility.yul\":589:596   */\n      0x00\n        /* \"#utility.yul\":629:671   */\n      0xffffffffffffffffffffffffffffffffffffffff\n        /* \"#utility.yul\":622:627   */\n      dup3\n        /* \"#utility.yul\":618:672   */\n      and\n        /* \"#utility.yul\":607:672   */\n      swap1\n      pop\n        /* \"#utility.yul\":552:678   */\n      swap2\n      swap1\n      pop\n      jump\t// out\n        /* \"#utility.yul\":684:744   */\n    tag_98:\n        /* \"#utility.yul\":712:715   */\n      0x00\n        /* \"#utility.yul\":733:738   */\n      dup2\n        /* \"#utility.yul\":726:738   */\n      swap1\n      pop\n        /* \"#utility.yul\":684:744   */\n      swap2\n      swap1\n      pop\n      jump\t// out\n        /* \"#utility.yul\":750:892   */\n    tag_99:\n        /* \"#utility.yul\":800:809   */\n      0x00\n        /* \"#utility.yul\":833:886   */\n      tag_132\n        /* \"#utility.yul\":851:885   */\n      tag_133\n        /* \"#utility.yul\":860:884   */\n      tag_134\n        /* \"#utility.yul\":878:883   */\n      dup5\n        /* \"#utility.yul\":860:884   */\n      tag_97\n      jump\t// in\n    tag_134:\n        /* \"#utility.yul\":851:885   */\n      tag_98\n      jump\t// in\n    tag_133:\n        /* \"#utility.yul\":833:886   */\n      tag_97\n      jump\t// in\n    tag_132:\n        /* \"#utility.yul\":820:886   */\n      swap1\n      pop\n        /* \"#utility.yul\":750:892   */\n      swap2\n      swap1\n      pop\n      jump\t// out\n        /* \"#utility.yul\":898:1024   */\n    tag_100:\n        /* \"#utility.yul\":948:957   */\n      0x00\n        /* \"#utility.yul\":981:1018   */\n      tag_136\n        /* \"#utility.yul\":1012:1017   */\n      dup3\n        /* \"#utility.yul\":981:1018   */\n      tag_99\n      jump\t// in\n    tag_136:\n        /* \"#utility.yul\":968:1018   */\n      swap1\n      pop\n        /* \"#utility.yul\":898:1024   */\n      swap2\n      swap1\n      pop\n      jump\t// out\n        /* \"#utility.yul\":1030:1170   */\n    tag_101:\n        /* \"#utility.yul\":1094:1103   */\n      0x00\n        /* \"#utility.yul\":1127:1164   */\n      tag_138\n        /* \"#utility.yul\":1158:1163   */\n      dup3\n        /* \"#utility.yul\":1127:1164   */\n      tag_100\n      jump\t// in\n    tag_138:\n        /* \"#utility.yul\":1114:1164   */\n      swap1\n      pop\n        /* \"#utility.yul\":1030:1170   */\n      swap2\n      swap1\n      pop\n      jump\t// out\n        /* \"#utility.yul\":1176:1335   */\n    tag_102:\n        /* \"#utility.yul\":1277:1328   */\n      tag_140\n        /* \"#utility.yul\":1322:1327   */\n      dup2\n        /* \"#utility.yul\":1277:1328   */\n      tag_101\n      jump\t// in\n    tag_140:\n        /* \"#utility.yul\":1272:1275   */\n      dup3\n        /* \"#utility.yul\":1265:1329   */\n      mstore\n        /* \"#utility.yul\":1176:1335   */\n      pop\n      pop\n      jump\t// out\n        /* \"#utility.yul\":1341:1591   */\n    tag_19:\n        /* \"#utility.yul\":1448:1452   */\n      0x00\n        /* \"#utility.yul\":1486:1488   */\n      0x20\n        /* \"#utility.yul\":1475:1484   */\n      dup3\n        /* \"#utility.yul\":1471:1489   */\n      add\n        /* \"#utility.yul\":1463:1489   */\n      swap1\n      pop\n        /* \"#utility.yul\":1499:1584   */\n      tag_142\n        /* \"#utility.yul\":1581:1582   */\n      0x00\n        /* \"#utility.yul\":1570:1579   */\n      dup4\n        /* \"#utility.yul\":1566:1583   */\n      add\n        /* \"#utility.yul\":1557:1563   */\n      dup5\n        /* \"#utility.yul\":1499:1584   */\n      tag_102\n      jump\t// in\n    tag_142:\n        /* \"#utility.yul\":1341:1591   */\n      swap3\n      swap2\n      pop\n      pop\n      jump\t// out\n        /* \"#utility.yul\":1597:1819   */\n    tag_23:\n        /* \"#utility.yul\":1690:1694   */\n      0x00\n        /* \"#utility.yul\":1728:1730   */\n      0x20\n        /* \"#utility.yul\":1717:1726   */\n      dup3\n        /* \"#utility.yul\":1713:1731   */\n      add\n        /* \"#utility.yul\":1705:1731   */\n      swap1\n      pop\n        /* \"#utility.yul\":1741:1812   */\n      tag_144\n        /* \"#utility.yul\":1809:1810   */\n      0x00\n        /* \"#utility.yul\":1798:1807   */\n      dup4\n        /* \"#utility.yul\":1794:1811   */\n      add\n        /* \"#utility.yul\":1785:1791   */\n      dup5\n        /* \"#utility.yul\":1741:1812   */\n      tag_96\n      jump\t// in\n    tag_144:\n        /* \"#utility.yul\":1597:1819   */\n      swap3\n      swap2\n      pop\n      pop\n      jump\t// out\n        /* \"#utility.yul\":1906:2023   */\n    tag_104:\n        /* \"#utility.yul\":2015:2016   */\n      0x00\n        /* \"#utility.yul\":2012:2013   */\n      dup1\n        /* \"#utility.yul\":2005:2017   */\n      revert\n        /* \"#utility.yul\":2152:2274   */\n    tag_106:\n        /* \"#utility.yul\":2225:2249   */\n      tag_149\n        /* \"#utility.yul\":2243:2248   */\n      dup2\n        /* \"#utility.yul\":2225:2249   */\n      tag_95\n      jump\t// in\n    tag_149:\n        /* \"#utility.yul\":2218:2223   */\n      dup2\n        /* \"#utility.yul\":2215:2250   */\n      eq\n        /* \"#utility.yul\":2205:2268   */\n      tag_150\n      jumpi\n        /* \"#utility.yul\":2264:2265   */\n      0x00\n        /* \"#utility.yul\":2261:2262   */\n      dup1\n        /* \"#utility.yul\":2254:2266   */\n      revert\n        /* \"#utility.yul\":2205:2268   */\n    tag_150:\n        /* \"#utility.yul\":2152:2274   */\n      pop\n      jump\t// out\n        /* \"#utility.yul\":2280:2419   */\n    tag_107:\n        /* \"#utility.yul\":2326:2331   */\n      0x00\n        /* \"#utility.yul\":2364:2370   */\n      dup2\n        /* \"#utility.yul\":2351:2371   */\n      calldataload\n        /* \"#utility.yul\":2342:2371   */\n      swap1\n      pop\n        /* \"#utility.yul\":2380:2413   */\n      tag_152\n        /* \"#utility.yul\":2407:2412   */\n      dup2\n        /* \"#utility.yul\":2380:2413   */\n      tag_106\n      jump\t// in\n    tag_152:\n        /* \"#utility.yul\":2280:2419   */\n      swap3\n      swap2\n      pop\n      pop\n      jump\t// out\n        /* \"#utility.yul\":2425:2754   */\n    tag_32:\n        /* \"#utility.yul\":2484:2490   */\n      0x00\n        /* \"#utility.yul\":2533:2535   */\n      0x20\n        /* \"#utility.yul\":2521:2530   */\n      dup3\n        /* \"#utility.yul\":2512:2519   */\n      dup5\n        /* \"#utility.yul\":2508:2531   */\n      sub\n        /* \"#utility.yul\":2504:2536   */\n      slt\n        /* \"#utility.yul\":2501:2620   */\n      iszero\n      tag_154\n      jumpi\n        /* \"#utility.yul\":2539:2618   */\n      tag_155\n      tag_104\n      jump\t// in\n    tag_155:\n        /* \"#utility.yul\":2501:2620   */\n    tag_154:\n        /* \"#utility.yul\":2659:2660   */\n      0x00\n        /* \"#utility.yul\":2684:2737   */\n      tag_156\n        /* \"#utility.yul\":2729:2736   */\n      dup5\n        /* \"#utility.yul\":2720:2726   */\n      dup3\n        /* \"#utility.yul\":2709:2718   */\n      dup6\n        /* \"#utility.yul\":2705:2727   */\n      add\n        /* \"#utility.yul\":2684:2737   */\n      tag_107\n      jump\t// in\n    tag_156:\n        /* \"#utility.yul\":2674:2737   */\n      swap2\n      pop\n        /* \"#utility.yul\":2630:2747   */\n      pop\n        /* \"#utility.yul\":2425:2754   */\n      swap3\n      swap2\n      pop\n      pop\n      jump\t// out\n        /* \"#utility.yul\":2760:3234   */\n    tag_36:\n        /* \"#utility.yul\":2828:2834   */\n      0x00\n        /* \"#utility.yul\":2836:2842   */\n      dup1\n        /* \"#utility.yul\":2885:2887   */\n      0x40\n        /* \"#utility.yul\":2873:2882   */\n      dup4\n        /* \"#utility.yul\":2864:2871   */\n      dup6\n        /* \"#utility.yul\":2860:2883   */\n      sub\n        /* \"#utility.yul\":2856:2888   */\n      slt\n        /* \"#utility.yul\":2853:2972   */\n      iszero\n      tag_158\n      jumpi\n        /* \"#utility.yul\":2891:2970   */\n      tag_159\n      tag_104\n      jump\t// in\n    tag_159:\n        /* \"#utility.yul\":2853:2972   */\n    tag_158:\n        /* \"#utility.yul\":3011:3012   */\n      0x00\n        /* \"#utility.yul\":3036:3089   */\n      tag_160\n        /* \"#utility.yul\":3081:3088   */\n      dup6\n        /* \"#utility.yul\":3072:3078   */\n      dup3\n        /* \"#utility.yul\":3061:3070   */\n      dup7\n        /* \"#utility.yul\":3057:3079   */\n      add\n        /* \"#utility.yul\":3036:3089   */\n      tag_107\n      jump\t// in\n    tag_160:\n        /* \"#utility.yul\":3026:3089   */\n      swap3\n      pop\n        /* \"#utility.yul\":2982:3099   */\n      pop\n        /* \"#utility.yul\":3138:3140   */\n      0x20\n        /* \"#utility.yul\":3164:3217   */\n      tag_161\n        /* \"#utility.yul\":3209:3216   */\n      dup6\n        /* \"#utility.yul\":3200:3206   */\n      dup3\n        /* \"#utility.yul\":3189:3198   */\n      dup7\n        /* \"#utility.yul\":3185:3207   */\n      add\n        /* \"#utility.yul\":3164:3217   */\n      tag_107\n      jump\t// in\n    tag_161:\n        /* \"#utility.yul\":3154:3217   */\n      swap2\n      pop\n        /* \"#utility.yul\":3109:3227   */\n      pop\n        /* \"#utility.yul\":2760:3234   */\n      swap3\n      pop\n      swap3\n      swap1\n      pop\n      jump\t// out\n        /* \"#utility.yul\":3240:3336   */\n    tag_108:\n        /* \"#utility.yul\":3277:3284   */\n      0x00\n        /* \"#utility.yul\":3306:3330   */\n      tag_163\n        /* \"#utility.yul\":3324:3329   */\n      dup3\n        /* \"#utility.yul\":3306:3330   */\n      tag_97\n      jump\t// in\n    tag_163:\n        /* \"#utility.yul\":3295:3330   */\n      swap1\n      pop\n        /* \"#utility.yul\":3240:3336   */\n      swap2\n      swap1\n      pop\n      jump\t// out\n        /* \"#utility.yul\":3342:3464   */\n    tag_109:\n        /* \"#utility.yul\":3415:3439   */\n      tag_165\n        /* \"#utility.yul\":3433:3438   */\n      dup2\n        /* \"#utility.yul\":3415:3439   */\n      tag_108\n      jump\t// in\n    tag_165:\n        /* \"#utility.yul\":3408:3413   */\n      dup2\n        /* \"#utility.yul\":3405:3440   */\n      eq\n        /* \"#utility.yul\":3395:3458   */\n      tag_166\n      jumpi\n        /* \"#utility.yul\":3454:3455   */\n      0x00\n        /* \"#utility.yul\":3451:3452   */\n      dup1\n        /* \"#utility.yul\":3444:3456   */\n      revert\n        /* \"#utility.yul\":3395:3458   */\n    tag_166:\n        /* \"#utility.yul\":3342:3464   */\n      pop\n      jump\t// out\n        /* \"#utility.yul\":3470:3609   */\n    tag_110:\n        /* \"#utility.yul\":3516:3521   */\n      0x00\n        /* \"#utility.yul\":3554:3560   */\n      dup2\n        /* \"#utility.yul\":3541:3561   */\n      calldataload\n        /* \"#utility.yul\":3532:3561   */\n      swap1\n      pop\n        /* \"#utility.yul\":3570:3603   */\n      tag_168\n        /* \"#utility.yul\":3597:3602   */\n      dup2\n        /* \"#utility.yul\":3570:3603   */\n      tag_109\n      jump\t// in\n    tag_168:\n        /* \"#utility.yul\":3470:3609   */\n      swap3\n      swap2\n      pop\n      pop\n      jump\t// out\n        /* \"#utility.yul\":3615:3944   */\n    tag_40:\n        /* \"#utility.yul\":3674:3680   */\n      0x00\n        /* \"#utility.yul\":3723:3725   */\n      0x20\n        /* \"#utility.yul\":3711:3720   */\n      dup3\n        /* \"#utility.yul\":3702:3709   */\n      dup5\n        /* \"#utility.yul\":3698:3721   */\n      sub\n        /* \"#utility.yul\":3694:3726   */\n      slt\n        /* \"#utility.yul\":3691:3810   */\n      iszero\n      tag_170\n      jumpi\n        /* \"#utility.yul\":3729:3808   */\n      tag_171\n      tag_104\n      jump\t// in\n    tag_171:\n        /* \"#utility.yul\":3691:3810   */\n    tag_170:\n        /* \"#utility.yul\":3849:3850   */\n      0x00\n        /* \"#utility.yul\":3874:3927   */\n      tag_172\n        /* \"#utility.yul\":3919:3926   */\n      dup5\n        /* \"#utility.yul\":3910:3916   */\n      dup3\n        /* \"#utility.yul\":3899:3908   */\n      dup6\n        /* \"#utility.yul\":3895:3917   */\n      add\n        /* \"#utility.yul\":3874:3927   */\n      tag_110\n      jump\t// in\n    tag_172:\n        /* \"#utility.yul\":3864:3927   */\n      swap2\n      pop\n        /* \"#utility.yul\":3820:3937   */\n      pop\n        /* \"#utility.yul\":3615:3944   */\n      swap3\n      swap2\n      pop\n      pop\n      jump\t// out\n        /* \"#utility.yul\":3950:4119   */\n    tag_111:\n        /* \"#utility.yul\":4034:4045   */\n      0x00\n        /* \"#utility.yul\":4068:4074   */\n      dup3\n        /* \"#utility.yul\":4063:4066   */\n      dup3\n        /* \"#utility.yul\":4056:4075   */\n      mstore\n        /* \"#utility.yul\":4108:4112   */\n      0x20\n        /* \"#utility.yul\":4103:4106   */\n      dup3\n        /* \"#utility.yul\":4099:4113   */\n      add\n        /* \"#utility.yul\":4084:4113   */\n      swap1\n      pop\n        /* \"#utility.yul\":3950:4119   */\n      swap3\n      swap2\n      pop\n      pop\n      jump\t// out\n        /* \"#utility.yul\":4125:4295   */\n    tag_112:\n        /* \"#utility.yul\":4265:4287   */\n      0x4e6f7420656e6f756768206c6971756964697479000000000000000000000000\n        /* \"#utility.yul\":4261:4262   */\n      0x00\n        /* \"#utility.yul\":4253:4259   */\n      dup3\n        /* \"#utility.yul\":4249:4263   */\n      add\n        /* \"#utility.yul\":4242:4288   */\n      mstore\n        /* \"#utility.yul\":4125:4295   */\n      pop\n      jump\t// out\n        /* \"#utility.yul\":4301:4667   */\n    tag_113:\n        /* \"#utility.yul\":4443:4446   */\n      0x00\n        /* \"#utility.yul\":4464:4531   */\n      tag_176\n        /* \"#utility.yul\":4528:4530   */\n      0x14\n        /* \"#utility.yul\":4523:4526   */\n      dup4\n        /* \"#utility.yul\":4464:4531   */\n      tag_111\n      jump\t// in\n    tag_176:\n        /* \"#utility.yul\":4457:4531   */\n      swap2\n      pop\n        /* \"#utility.yul\":4540:4633   */\n      tag_177\n        /* \"#utility.yul\":4629:4632   */\n      dup3\n        /* \"#utility.yul\":4540:4633   */\n      tag_112\n      jump\t// in\n    tag_177:\n        /* \"#utility.yul\":4658:4660   */\n      0x20\n        /* \"#utility.yul\":4653:4656   */\n      dup3\n        /* \"#utility.yul\":4649:4661   */\n      add\n        /* \"#utility.yul\":4642:4661   */\n      swap1\n      pop\n        /* \"#utility.yul\":4301:4667   */\n      swap2\n      swap1\n      pop\n      jump\t// out\n        /* \"#utility.yul\":4673:5092   */\n    tag_47:\n        /* \"#utility.yul\":4839:4843   */\n      0x00\n        /* \"#utility.yul\":4877:4879   */\n      0x20\n        /* \"#utility.yul\":4866:4875   */\n      dup3\n        /* \"#utility.yul\":4862:4880   */\n      add\n        /* \"#utility.yul\":4854:4880   */\n      swap1\n      pop\n        /* \"#utility.yul\":4926:4935   */\n      dup2\n        /* \"#utility.yul\":4920:4924   */\n      dup2\n        /* \"#utility.yul\":4916:4936   */\n      sub\n        /* \"#utility.yul\":4912:4913   */\n      0x00\n        /* \"#utility.yul\":4901:4910   */\n      dup4\n        /* \"#utility.yul\":4897:4914   */\n      add\n        /* \"#utility.yul\":4890:4937   */\n      mstore\n        /* \"#utility.yul\":4954:5085   */\n      tag_179\n        /* \"#utility.yul\":5080:5084   */\n      dup2\n        /* \"#utility.yul\":4954:5085   */\n      tag_113\n      jump\t// in\n    tag_179:\n        /* \"#utility.yul\":4946:5085   */\n      swap1\n      pop\n        /* \"#utility.yul\":4673:5092   */\n      swap2\n      swap1\n      pop\n      jump\t// out\n        /* \"#utility.yul\":5098:5278   */\n    tag_114:\n        /* \"#utility.yul\":5146:5223   */\n      0x4e487b7100000000000000000000000000000000000000000000000000000000\n        /* \"#utility.yul\":5143:5144   */\n      0x00\n        /* \"#utility.yul\":5136:5224   */\n      mstore\n        /* \"#utility.yul\":5243:5247   */\n      0x11\n        /* \"#utility.yul\":5240:5241   */\n      0x04\n        /* \"#utility.yul\":5233:5248   */\n      mstore\n        /* \"#utility.yul\":5267:5271   */\n      0x24\n        /* \"#utility.yul\":5264:5265   */\n      0x00\n        /* \"#utility.yul\":5257:5272   */\n      revert\n        /* \"#utility.yul\":5284:5694   */\n    tag_49:\n        /* \"#utility.yul\":5324:5331   */\n      0x00\n        /* \"#utility.yul\":5347:5367   */\n      tag_182\n        /* \"#utility.yul\":5365:5366   */\n      dup3\n        /* \"#utility.yul\":5347:5367   */\n      tag_95\n      jump\t// in\n    tag_182:\n        /* \"#utility.yul\":5342:5367   */\n      swap2\n      pop\n        /* \"#utility.yul\":5381:5401   */\n      tag_183\n        /* \"#utility.yul\":5399:5400   */\n      dup4\n        /* \"#utility.yul\":5381:5401   */\n      tag_95\n      jump\t// in\n    tag_183:\n        /* \"#utility.yul\":5376:5401   */\n      swap3\n      pop\n        /* \"#utility.yul\":5436:5437   */\n      dup3\n        /* \"#utility.yul\":5433:5434   */\n      dup3\n        /* \"#utility.yul\":5429:5438   */\n      mul\n        /* \"#utility.yul\":5458:5488   */\n      tag_184\n        /* \"#utility.yul\":5476:5487   */\n      dup2\n        /* \"#utility.yul\":5458:5488   */\n      tag_95\n      jump\t// in\n    tag_184:\n        /* \"#utility.yul\":5447:5488   */\n      swap2\n      pop\n        /* \"#utility.yul\":5637:5638   */\n      dup3\n        /* \"#utility.yul\":5628:5635   */\n      dup3\n        /* \"#utility.yul\":5624:5639   */\n      div\n        /* \"#utility.yul\":5621:5622   */\n      dup5\n        /* \"#utility.yul\":5618:5640   */\n      eq\n        /* \"#utility.yul\":5598:5599   */\n      dup4\n        /* \"#utility.yul\":5591:5600   */\n      iszero\n        /* \"#utility.yul\":5571:5654   */\n      or\n        /* \"#utility.yul\":5548:5687   */\n      tag_185\n      jumpi\n        /* \"#utility.yul\":5667:5685   */\n      tag_186\n      tag_114\n      jump\t// in\n    tag_186:\n        /* \"#utility.yul\":5548:5687   */\n    tag_185:\n        /* \"#utility.yul\":5332:5694   */\n      pop\n        /* \"#utility.yul\":5284:5694   */\n      swap3\n      swap2\n      pop\n      pop\n      jump\t// out\n        /* \"#utility.yul\":5700:5880   */\n    tag_115:\n        /* \"#utility.yul\":5748:5825   */\n      0x4e487b7100000000000000000000000000000000000000000000000000000000\n        /* \"#utility.yul\":5745:5746   */\n      0x00\n        /* \"#utility.yul\":5738:5826   */\n      mstore\n        /* \"#utility.yul\":5845:5849   */\n      0x12\n        /* \"#utility.yul\":5842:5843   */\n      0x04\n        /* \"#utility.yul\":5835:5850   */\n      mstore\n        /* \"#utility.yul\":5869:5873   */\n      0x24\n        /* \"#utility.yul\":5866:5867   */\n      0x00\n        /* \"#utility.yul\":5859:5874   */\n      revert\n        /* \"#utility.yul\":5886:6071   */\n    tag_51:\n        /* \"#utility.yul\":5926:5927   */\n      0x00\n        /* \"#utility.yul\":5943:5963   */\n      tag_189\n        /* \"#utility.yul\":5961:5962   */\n      dup3\n        /* \"#utility.yul\":5943:5963   */\n      tag_95\n      jump\t// in\n    tag_189:\n        /* \"#utility.yul\":5938:5963   */\n      swap2\n      pop\n        /* \"#utility.yul\":5977:5997   */\n      tag_190\n        /* \"#utility.yul\":5995:5996   */\n      dup4\n        /* \"#utility.yul\":5977:5997   */\n      tag_95\n      jump\t// in\n    tag_190:\n        /* \"#utility.yul\":5972:5997   */\n      swap3\n      pop\n        /* \"#utility.yul\":6016:6017   */\n      dup3\n        /* \"#utility.yul\":6006:6041   */\n      tag_191\n      jumpi\n        /* \"#utility.yul\":6021:6039   */\n      tag_192\n      tag_115\n      jump\t// in\n    tag_192:\n        /* \"#utility.yul\":6006:6041   */\n    tag_191:\n        /* \"#utility.yul\":6063:6064   */\n      dup3\n        /* \"#utility.yul\":6060:6061   */\n      dup3\n        /* \"#utility.yul\":6056:6065   */\n      div\n        /* \"#utility.yul\":6051:6065   */\n      swap1\n      pop\n        /* \"#utility.yul\":5886:6071   */\n      swap3\n      swap2\n      pop\n      pop\n      jump\t// out\n        /* \"#utility.yul\":6077:6271   */\n    tag_55:\n        /* \"#utility.yul\":6117:6121   */\n      0x00\n        /* \"#utility.yul\":6137:6157   */\n      tag_194\n        /* \"#utility.yul\":6155:6156   */\n      dup3\n        /* \"#utility.yul\":6137:6157   */\n      tag_95\n      jump\t// in\n    tag_194:\n        /* \"#utility.yul\":6132:6157   */\n      swap2\n      pop\n        /* \"#utility.yul\":6171:6191   */\n      tag_195\n        /* \"#utility.yul\":6189:6190   */\n      dup4\n        /* \"#utility.yul\":6171:6191   */\n      tag_95\n      jump\t// in\n    tag_195:\n        /* \"#utility.yul\":6166:6191   */\n      swap3\n      pop\n        /* \"#utility.yul\":6215:6216   */\n      dup3\n        /* \"#utility.yul\":6212:6213   */\n      dup3\n        /* \"#utility.yul\":6208:6217   */\n      sub\n        /* \"#utility.yul\":6200:6217   */\n      swap1\n      pop\n        /* \"#utility.yul\":6239:6240   */\n      dup2\n        /* \"#utility.yul\":6233:6237   */\n      dup2\n        /* \"#utility.yul\":6230:6241   */\n      gt\n        /* \"#utility.yul\":6227:6264   */\n      iszero\n      tag_196\n      jumpi\n        /* \"#utility.yul\":6244:6262   */\n      tag_197\n      tag_114\n      jump\t// in\n    tag_197:\n        /* \"#utility.yul\":6227:6264   */\n    tag_196:\n        /* \"#utility.yul\":6077:6271   */\n      swap3\n      swap2\n      pop\n      pop\n      jump\t// out\n        /* \"#utility.yul\":6277:6395   */\n    tag_116:\n        /* \"#utility.yul\":6364:6388   */\n      tag_199\n        /* \"#utility.yul\":6382:6387   */\n      dup2\n        /* \"#utility.yul\":6364:6388   */\n      tag_108\n      jump\t// in\n    tag_199:\n        /* \"#utility.yul\":6359:6362   */\n      dup3\n        /* \"#utility.yul\":6352:6389   */\n      mstore\n        /* \"#utility.yul\":6277:6395   */\n      pop\n      pop\n      jump\t// out\n        /* \"#utility.yul\":6401:6733   */\n    tag_59:\n        /* \"#utility.yul\":6522:6526   */\n      0x00\n        /* \"#utility.yul\":6560:6562   */\n      0x40\n        /* \"#utility.yul\":6549:6558   */\n      dup3\n        /* \"#utility.yul\":6545:6563   */\n      add\n        /* \"#utility.yul\":6537:6563   */\n      swap1\n      pop\n        /* \"#utility.yul\":6573:6644   */\n      tag_201\n        /* \"#utility.yul\":6641:6642   */\n      0x00\n        /* \"#utility.yul\":6630:6639   */\n      dup4\n        /* \"#utility.yul\":6626:6643   */\n      add\n        /* \"#utility.yul\":6617:6623   */\n      dup6\n        /* \"#utility.yul\":6573:6644   */\n      tag_116\n      jump\t// in\n    tag_201:\n        /* \"#utility.yul\":6654:6726   */\n      tag_202\n        /* \"#utility.yul\":6722:6724   */\n      0x20\n        /* \"#utility.yul\":6711:6720   */\n      dup4\n        /* \"#utility.yul\":6707:6725   */\n      add\n        /* \"#utility.yul\":6698:6704   */\n      dup5\n        /* \"#utility.yul\":6654:6726   */\n      tag_96\n      jump\t// in\n    tag_202:\n        /* \"#utility.yul\":6401:6733   */\n      swap4\n      swap3\n      pop\n      pop\n      pop\n      jump\t// out\n        /* \"#utility.yul\":6739:6829   */\n    tag_117:\n        /* \"#utility.yul\":6773:6780   */\n      0x00\n        /* \"#utility.yul\":6816:6821   */\n      dup2\n        /* \"#utility.yul\":6809:6822   */\n      iszero\n        /* \"#utility.yul\":6802:6823   */\n      iszero\n        /* \"#utility.yul\":6791:6823   */\n      swap1\n      pop\n        /* \"#utility.yul\":6739:6829   */\n      swap2\n      swap1\n      pop\n      jump\t// out\n        /* \"#utility.yul\":6835:6951   */\n    tag_118:\n        /* \"#utility.yul\":6905:6926   */\n      tag_205\n        /* \"#utility.yul\":6920:6925   */\n      dup2\n        /* \"#utility.yul\":6905:6926   */\n      tag_117\n      jump\t// in\n    tag_205:\n        /* \"#utility.yul\":6898:6903   */\n      dup2\n        /* \"#utility.yul\":6895:6927   */\n      eq\n        /* \"#utility.yul\":6885:6945   */\n      tag_206\n      jumpi\n        /* \"#utility.yul\":6941:6942   */\n      0x00\n        /* \"#utility.yul\":6938:6939   */\n      dup1\n        /* \"#utility.yul\":6931:6943   */\n      revert\n        /* \"#utility.yul\":6885:6945   */\n    tag_206:\n        /* \"#utility.yul\":6835:6951   */\n      pop\n      jump\t// out\n        /* \"#utility.yul\":6957:7094   */\n    tag_119:\n        /* \"#utility.yul\":7011:7016   */\n      0x00\n        /* \"#utility.yul\":7042:7048   */\n      dup2\n        /* \"#utility.yul\":7036:7049   */\n      mload\n        /* \"#utility.yul\":7027:7049   */\n      swap1\n      pop\n        /* \"#utility.yul\":7058:7088   */\n      tag_208\n        /* \"#utility.yul\":7082:7087   */\n      dup2\n        /* \"#utility.yul\":7058:7088   */\n      tag_118\n      jump\t// in\n    tag_208:\n        /* \"#utility.yul\":6957:7094   */\n      swap3\n      swap2\n      pop\n      pop\n      jump\t// out\n        /* \"#utility.yul\":7100:7445   */\n    tag_63:\n        /* \"#utility.yul\":7167:7173   */\n      0x00\n        /* \"#utility.yul\":7216:7218   */\n      0x20\n        /* \"#utility.yul\":7204:7213   */\n      dup3\n        /* \"#utility.yul\":7195:7202   */\n      dup5\n        /* \"#utility.yul\":7191:7214   */\n      sub\n        /* \"#utility.yul\":7187:7219   */\n      slt\n        /* \"#utility.yul\":7184:7303   */\n      iszero\n      tag_210\n      jumpi\n        /* \"#utility.yul\":7222:7301   */\n      tag_211\n      tag_104\n      jump\t// in\n    tag_211:\n        /* \"#utility.yul\":7184:7303   */\n    tag_210:\n        /* \"#utility.yul\":7342:7343   */\n      0x00\n        /* \"#utility.yul\":7367:7428   */\n      tag_212\n        /* \"#utility.yul\":7420:7427   */\n      dup5\n        /* \"#utility.yul\":7411:7417   */\n      dup3\n        /* \"#utility.yul\":7400:7409   */\n      dup6\n        /* \"#utility.yul\":7396:7418   */\n      add\n        /* \"#utility.yul\":7367:7428   */\n      tag_119\n      jump\t// in\n    tag_212:\n        /* \"#utility.yul\":7357:7428   */\n      swap2\n      pop\n        /* \"#utility.yul\":7313:7438   */\n      pop\n        /* \"#utility.yul\":7100:7445   */\n      swap3\n      swap2\n      pop\n      pop\n      jump\t// out\n        /* \"#utility.yul\":7451:7893   */\n    tag_69:\n        /* \"#utility.yul\":7600:7604   */\n      0x00\n        /* \"#utility.yul\":7638:7640   */\n      0x60\n        /* \"#utility.yul\":7627:7636   */\n      dup3\n        /* \"#utility.yul\":7623:7641   */\n      add\n        /* \"#utility.yul\":7615:7641   */\n      swap1\n      pop\n        /* \"#utility.yul\":7651:7722   */\n      tag_214\n        /* \"#utility.yul\":7719:7720   */\n      0x00\n        /* \"#utility.yul\":7708:7717   */\n      dup4\n        /* \"#utility.yul\":7704:7721   */\n      add\n        /* \"#utility.yul\":7695:7701   */\n      dup7\n        /* \"#utility.yul\":7651:7722   */\n      tag_96\n      jump\t// in\n    tag_214:\n        /* \"#utility.yul\":7732:7804   */\n      tag_215\n        /* \"#utility.yul\":7800:7802   */\n      0x20\n        /* \"#utility.yul\":7789:7798   */\n      dup4\n        /* \"#utility.yul\":7785:7803   */\n      add\n        /* \"#utility.yul\":7776:7782   */\n      dup6\n        /* \"#utility.yul\":7732:7804   */\n      tag_96\n      jump\t// in\n    tag_215:\n        /* \"#utility.yul\":7814:7886   */\n      tag_216\n        /* \"#utility.yul\":7882:7884   */\n      0x40\n        /* \"#utility.yul\":7871:7880   */\n      dup4\n        /* \"#utility.yul\":7867:7885   */\n      add\n        /* \"#utility.yul\":7858:7864   */\n      dup5\n        /* \"#utility.yul\":7814:7886   */\n      tag_96\n      jump\t// in\n    tag_216:\n        /* \"#utility.yul\":7451:7893   */\n      swap5\n      swap4\n      pop\n      pop\n      pop\n      pop\n      jump\t// out\n        /* \"#utility.yul\":7899:8119   */\n    tag_120:\n        /* \"#utility.yul\":8039:8073   */\n      0x416d6f756e7473206d7573742062652067726561746572207468616e207a6572\n        /* \"#utility.yul\":8035:8036   */\n      0x00\n        /* \"#utility.yul\":8027:8033   */\n      dup3\n        /* \"#utility.yul\":8023:8037   */\n      add\n        /* \"#utility.yul\":8016:8074   */\n      mstore\n        /* \"#utility.yul\":8108:8111   */\n      0x6f00000000000000000000000000000000000000000000000000000000000000\n        /* \"#utility.yul\":8103:8105   */\n      0x20\n        /* \"#utility.yul\":8095:8101   */\n      dup3\n        /* \"#utility.yul\":8091:8106   */\n      add\n        /* \"#utility.yul\":8084:8112   */\n      mstore\n        /* \"#utility.yul\":7899:8119   */\n      pop\n      jump\t// out\n        /* \"#utility.yul\":8125:8491   */\n    tag_121:\n        /* \"#utility.yul\":8267:8270   */\n      0x00\n        /* \"#utility.yul\":8288:8355   */\n      tag_219\n        /* \"#utility.yul\":8352:8354   */\n      0x21\n        /* \"#utility.yul\":8347:8350   */\n      dup4\n        /* \"#utility.yul\":8288:8355   */\n      tag_111\n      jump\t// in\n    tag_219:\n        /* \"#utility.yul\":8281:8355   */\n      swap2\n      pop\n        /* \"#utility.yul\":8364:8457   */\n      tag_220\n        /* \"#utility.yul\":8453:8456   */\n      dup3\n        /* \"#utility.yul\":8364:8457   */\n      tag_120\n      jump\t// in\n    tag_220:\n        /* \"#utility.yul\":8482:8484   */\n      0x40\n        /* \"#utility.yul\":8477:8480   */\n      dup3\n        /* \"#utility.yul\":8473:8485   */\n      add\n        /* \"#utility.yul\":8466:8485   */\n      swap1\n      pop\n        /* \"#utility.yul\":8125:8491   */\n      swap2\n      swap1\n      pop\n      jump\t// out\n        /* \"#utility.yul\":8497:8916   */\n    tag_74:\n        /* \"#utility.yul\":8663:8667   */\n      0x00\n        /* \"#utility.yul\":8701:8703   */\n      0x20\n        /* \"#utility.yul\":8690:8699   */\n      dup3\n        /* \"#utility.yul\":8686:8704   */\n      add\n        /* \"#utility.yul\":8678:8704   */\n      swap1\n      pop\n        /* \"#utility.yul\":8750:8759   */\n      dup2\n        /* \"#utility.yul\":8744:8748   */\n      dup2\n        /* \"#utility.yul\":8740:8760   */\n      sub\n        /* \"#utility.yul\":8736:8737   */\n      0x00\n        /* \"#utility.yul\":8725:8734   */\n      dup4\n        /* \"#utility.yul\":8721:8738   */\n      add\n        /* \"#utility.yul\":8714:8761   */\n      mstore\n        /* \"#utility.yul\":8778:8909   */\n      tag_222\n        /* \"#utility.yul\":8904:8908   */\n      dup2\n        /* \"#utility.yul\":8778:8909   */\n      tag_121\n      jump\t// in\n    tag_222:\n        /* \"#utility.yul\":8770:8909   */\n      swap1\n      pop\n        /* \"#utility.yul\":8497:8916   */\n      swap2\n      swap1\n      pop\n      jump\t// out\n        /* \"#utility.yul\":8922:9364   */\n    tag_76:\n        /* \"#utility.yul\":9071:9075   */\n      0x00\n        /* \"#utility.yul\":9109:9111   */\n      0x60\n        /* \"#utility.yul\":9098:9107   */\n      dup3\n        /* \"#utility.yul\":9094:9112   */\n      add\n        /* \"#utility.yul\":9086:9112   */\n      swap1\n      pop\n        /* \"#utility.yul\":9122:9193   */\n      tag_224\n        /* \"#utility.yul\":9190:9191   */\n      0x00\n        /* \"#utility.yul\":9179:9188   */\n      dup4\n        /* \"#utility.yul\":9175:9192   */\n      add\n        /* \"#utility.yul\":9166:9172   */\n      dup7\n        /* \"#utility.yul\":9122:9193   */\n      tag_116\n      jump\t// in\n    tag_224:\n        /* \"#utility.yul\":9203:9275   */\n      tag_225\n        /* \"#utility.yul\":9271:9273   */\n      0x20\n        /* \"#utility.yul\":9260:9269   */\n      dup4\n        /* \"#utility.yul\":9256:9274   */\n      add\n        /* \"#utility.yul\":9247:9253   */\n      dup6\n        /* \"#utility.yul\":9203:9275   */\n      tag_116\n      jump\t// in\n    tag_225:\n        /* \"#utility.yul\":9285:9357   */\n      tag_226\n        /* \"#utility.yul\":9353:9355   */\n      0x40\n        /* \"#utility.yul\":9342:9351   */\n      dup4\n        /* \"#utility.yul\":9338:9356   */\n      add\n        /* \"#utility.yul\":9329:9335   */\n      dup5\n        /* \"#utility.yul\":9285:9357   */\n      tag_96\n      jump\t// in\n    tag_226:\n        /* \"#utility.yul\":8922:9364   */\n      swap5\n      swap4\n      pop\n      pop\n      pop\n      pop\n      jump\t// out\n        /* \"#utility.yul\":9370:9561   */\n    tag_87:\n        /* \"#utility.yul\":9410:9413   */\n      0x00\n        /* \"#utility.yul\":9429:9449   */\n      tag_228\n        /* \"#utility.yul\":9447:9448   */\n      dup3\n        /* \"#utility.yul\":9429:9449   */\n      tag_95\n      jump\t// in\n    tag_228:\n        /* \"#utility.yul\":9424:9449   */\n      swap2\n      pop\n        /* \"#utility.yul\":9463:9483   */\n      tag_229\n        /* \"#utility.yul\":9481:9482   */\n      dup4\n        /* \"#utility.yul\":9463:9483   */\n      tag_95\n      jump\t// in\n    tag_229:\n        /* \"#utility.yul\":9458:9483   */\n      swap3\n      pop\n        /* \"#utility.yul\":9506:9507   */\n      dup3\n        /* \"#utility.yul\":9503:9504   */\n      dup3\n        /* \"#utility.yul\":9499:9508   */\n      add\n        /* \"#utility.yul\":9492:9508   */\n      swap1\n      pop\n        /* \"#utility.yul\":9527:9530   */\n      dup1\n        /* \"#utility.yul\":9524:9525   */\n      dup3\n        /* \"#utility.yul\":9521:9531   */\n      gt\n        /* \"#utility.yul\":9518:9554   */\n      iszero\n      tag_230\n      jumpi\n        /* \"#utility.yul\":9534:9552   */\n      tag_231\n      tag_114\n      jump\t// in\n    tag_231:\n        /* \"#utility.yul\":9518:9554   */\n    tag_230:\n        /* \"#utility.yul\":9370:9561   */\n      swap3\n      swap2\n      pop\n      pop\n      jump\t// out\n\n    auxdata: 0xa26469706673582212205d013d3b7abd381a3b17007378c57a48bace84c3924942f57000f510fdcce47f64736f6c634300081a0033\n}\n",
				"bytecode": {
					"linkReferences": {},
					"object": "608060405234801561000f575f80fd5b50604051610ea7380380610ea783398181016040528101906100319190610115565b815f806101000a81548173ffffffffffffffffffffffffffffffffffffffff021916908373ffffffffffffffffffffffffffffffffffffffff1602179055508060015f6101000a81548173ffffffffffffffffffffffffffffffffffffffff021916908373ffffffffffffffffffffffffffffffffffffffff1602179055505050610153565b5f80fd5b5f73ffffffffffffffffffffffffffffffffffffffff82169050919050565b5f6100e4826100bb565b9050919050565b6100f4816100da565b81146100fe575f80fd5b50565b5f8151905061010f816100eb565b92915050565b5f806040838503121561012b5761012a6100b7565b5b5f61013885828601610101565b925050602061014985828601610101565b9150509250929050565b610d47806101605f395ff3fe608060405234801561000f575f80fd5b5060043610610086575f3560e01c8063653f6c7211610059578063653f6c72146101035780639c8f9f23146101215780639cd441da1461013d578063b8c876b11461015957610086565b80630902f1ac1461008a5780630fc63d10146100a9578063439702af146100c75780635f64b55b146100e5575b5f80fd5b610092610189565b6040516100a092919061080a565b60405180910390f35b6100b1610199565b6040516100be91906108ab565b60405180910390f35b6100cf6101bc565b6040516100dc91906108c4565b60405180910390f35b6100ed6101c2565b6040516100fa91906108ab565b60405180910390f35b61010b6101e7565b60405161011891906108c4565b60405180910390f35b61013b6004803603810190610136919061090b565b6101ed565b005b61015760048036038101906101529190610936565b610531565b005b610173600480360381019061016e91906109af565b6107dd565b60405161018091906108c4565b60405180910390f35b5f80600254600354915091509091565b5f8054906101000a900473ffffffffffffffffffffffffffffffffffffffff1681565b60035481565b60015f9054906101000a900473ffffffffffffffffffffffffffffffffffffffff1681565b60025481565b8060045f3373ffffffffffffffffffffffffffffffffffffffff1673ffffffffffffffffffffffffffffffffffffffff1681526020019081526020015f2054101561026d576040517f08c379a000000000000000000000000000000000000000000000000000000000815260040161026490610a34565b60405180910390fd5b5f60045f3373ffffffffffffffffffffffffffffffffffffffff1673ffffffffffffffffffffffffffffffffffffffff1681526020019081526020015f2054600254836102ba9190610a7f565b6102c49190610aed565b90505f60045f3373ffffffffffffffffffffffffffffffffffffffff1673ffffffffffffffffffffffffffffffffffffffff1681526020019081526020015f2054600354846103139190610a7f565b61031d9190610aed565b90508260045f3373ffffffffffffffffffffffffffffffffffffffff1673ffffffffffffffffffffffffffffffffffffffff1681526020019081526020015f205f82825461036b9190610b1d565b925050819055508160025f8282546103839190610b1d565b925050819055508060035f82825461039b9190610b1d565b925050819055505f8054906101000a900473ffffffffffffffffffffffffffffffffffffffff1673ffffffffffffffffffffffffffffffffffffffff1663a9059cbb33846040518363ffffffff1660e01b81526004016103fc929190610b5f565b6020604051808303815f875af1158015610418573d5f803e3d5ffd5b505050506040513d601f19601f8201168201806040525081019061043c9190610bbb565b5060015f9054906101000a900473ffffffffffffffffffffffffffffffffffffffff1673ffffffffffffffffffffffffffffffffffffffff1663a9059cbb33836040518363ffffffff1660e01b8152600401610499929190610b5f565b6020604051808303815f875af11580156104b5573d5f803e3d5ffd5b505050506040513d601f19601f820116820180604052508101906104d99190610bbb565b503373ffffffffffffffffffffffffffffffffffffffff167f1dc8bb69df2b8e91fbdcbfcf93d951b3f0000f085a95fe3f7946d6161439245d83838660405161052493929190610be6565b60405180910390a2505050565b5f8211801561053f57505f81115b61057e576040517f08c379a000000000000000000000000000000000000000000000000000000000815260040161057590610c8b565b60405180910390fd5b5f8054906101000a900473ffffffffffffffffffffffffffffffffffffffff1673ffffffffffffffffffffffffffffffffffffffff166323b872dd3330856040518463ffffffff1660e01b81526004016105da93929190610ca9565b6020604051808303815f875af11580156105f6573d5f803e3d5ffd5b505050506040513d601f19601f8201168201806040525081019061061a9190610bbb565b5060015f9054906101000a900473ffffffffffffffffffffffffffffffffffffffff1673ffffffffffffffffffffffffffffffffffffffff166323b872dd3330846040518463ffffffff1660e01b815260040161067993929190610ca9565b6020604051808303815f875af1158015610695573d5f803e3d5ffd5b505050506040513d601f19601f820116820180604052508101906106b99190610bbb565b505f806002541480156106cd57505f600354145b156106e55781836106de9190610cde565b9050610703565b600354600254846106f69190610a7f565b6107009190610aed565b90505b8260025f8282546107149190610cde565b925050819055508160035f82825461072c9190610cde565b925050819055508060045f3373ffffffffffffffffffffffffffffffffffffffff1673ffffffffffffffffffffffffffffffffffffffff1681526020019081526020015f205f82825461077f9190610cde565b925050819055503373ffffffffffffffffffffffffffffffffffffffff167f64b83944e79c3ce8d4c297411de637c3e102d064677aac0c163976ebdcd6f50e8484846040516107d093929190610be6565b60405180910390a2505050565b6004602052805f5260405f205f915090505481565b5f819050919050565b610804816107f2565b82525050565b5f60408201905061081d5f8301856107fb565b61082a60208301846107fb565b9392505050565b5f73ffffffffffffffffffffffffffffffffffffffff82169050919050565b5f819050919050565b5f61087361086e61086984610831565b610850565b610831565b9050919050565b5f61088482610859565b9050919050565b5f6108958261087a565b9050919050565b6108a58161088b565b82525050565b5f6020820190506108be5f83018461089c565b92915050565b5f6020820190506108d75f8301846107fb565b92915050565b5f80fd5b6108ea816107f2565b81146108f4575f80fd5b50565b5f81359050610905816108e1565b92915050565b5f602082840312156109205761091f6108dd565b5b5f61092d848285016108f7565b91505092915050565b5f806040838503121561094c5761094b6108dd565b5b5f610959858286016108f7565b925050602061096a858286016108f7565b9150509250929050565b5f61097e82610831565b9050919050565b61098e81610974565b8114610998575f80fd5b50565b5f813590506109a981610985565b92915050565b5f602082840312156109c4576109c36108dd565b5b5f6109d18482850161099b565b91505092915050565b5f82825260208201905092915050565b7f4e6f7420656e6f756768206c69717569646974790000000000000000000000005f82015250565b5f610a1e6014836109da565b9150610a29826109ea565b602082019050919050565b5f6020820190508181035f830152610a4b81610a12565b9050919050565b7f4e487b71000000000000000000000000000000000000000000000000000000005f52601160045260245ffd5b5f610a89826107f2565b9150610a94836107f2565b9250828202610aa2816107f2565b91508282048414831517610ab957610ab8610a52565b5b5092915050565b7f4e487b71000000000000000000000000000000000000000000000000000000005f52601260045260245ffd5b5f610af7826107f2565b9150610b02836107f2565b925082610b1257610b11610ac0565b5b828204905092915050565b5f610b27826107f2565b9150610b32836107f2565b9250828203905081811115610b4a57610b49610a52565b5b92915050565b610b5981610974565b82525050565b5f604082019050610b725f830185610b50565b610b7f60208301846107fb565b9392505050565b5f8115159050919050565b610b9a81610b86565b8114610ba4575f80fd5b50565b5f81519050610bb581610b91565b92915050565b5f60208284031215610bd057610bcf6108dd565b5b5f610bdd84828501610ba7565b91505092915050565b5f606082019050610bf95f8301866107fb565b610c0660208301856107fb565b610c1360408301846107fb565b949350505050565b7f416d6f756e7473206d7573742062652067726561746572207468616e207a65725f8201527f6f00000000000000000000000000000000000000000000000000000000000000602082015250565b5f610c756021836109da565b9150610c8082610c1b565b604082019050919050565b5f6020820190508181035f830152610ca281610c69565b9050919050565b5f606082019050610cbc5f830186610b50565b610cc96020830185610b50565b610cd660408301846107fb565b949350505050565b5f610ce8826107f2565b9150610cf3836107f2565b9250828201905080821115610d0b57610d0a610a52565b5b9291505056fea26469706673582212205d013d3b7abd381a3b17007378c57a48bace84c3924942f57000f510fdcce47f64736f6c634300081a0033",
					"opcodes": "PUSH1 0x80 PUSH1 0x40 MSTORE CALLVALUE DUP1 ISZERO PUSH2 0xF JUMPI PUSH0 DUP1 REVERT JUMPDEST POP PUSH1 0x40 MLOAD PUSH2 0xEA7 CODESIZE SUB DUP1 PUSH2 0xEA7 DUP4 CODECOPY DUP2 DUP2 ADD PUSH1 0x40 MSTORE DUP2 ADD SWAP1 PUSH2 0x31 SWAP2 SWAP1 PUSH2 0x115 JUMP JUMPDEST DUP2 PUSH0 DUP1 PUSH2 0x100 EXP DUP2 SLOAD DUP2 PUSH20 0xFFFFFFFFFFFFFFFFFFFFFFFFFFFFFFFFFFFFFFFF MUL NOT AND SWAP1 DUP4 PUSH20 0xFFFFFFFFFFFFFFFFFFFFFFFFFFFFFFFFFFFFFFFF AND MUL OR SWAP1 SSTORE POP DUP1 PUSH1 0x1 PUSH0 PUSH2 0x100 EXP DUP2 SLOAD DUP2 PUSH20 0xFFFFFFFFFFFFFFFFFFFFFFFFFFFFFFFFFFFFFFFF MUL NOT AND SWAP1 DUP4 PUSH20 0xFFFFFFFFFFFFFFFFFFFFFFFFFFFFFFFFFFFFFFFF AND MUL OR SWAP1 SSTORE POP POP POP PUSH2 0x153 JUMP JUMPDEST PUSH0 DUP1 REVERT JUMPDEST PUSH0 PUSH20 0xFFFFFFFFFFFFFFFFFFFFFFFFFFFFFFFFFFFFFFFF DUP3 AND SWAP1 POP SWAP2 SWAP1 POP JUMP JUMPDEST PUSH0 PUSH2 0xE4 DUP3 PUSH2 0xBB JUMP JUMPDEST SWAP1 POP SWAP2 SWAP1 POP JUMP JUMPDEST PUSH2 0xF4 DUP2 PUSH2 0xDA JUMP JUMPDEST DUP2 EQ PUSH2 0xFE JUMPI PUSH0 DUP1 REVERT JUMPDEST POP JUMP JUMPDEST PUSH0 DUP2 MLOAD SWAP1 POP PUSH2 0x10F DUP2 PUSH2 0xEB JUMP JUMPDEST SWAP3 SWAP2 POP POP JUMP JUMPDEST PUSH0 DUP1 PUSH1 0x40 DUP4 DUP6 SUB SLT ISZERO PUSH2 0x12B JUMPI PUSH2 0x12A PUSH2 0xB7 JUMP JUMPDEST JUMPDEST PUSH0 PUSH2 0x138 DUP6 DUP3 DUP7 ADD PUSH2 0x101 JUMP JUMPDEST SWAP3 POP POP PUSH1 0x20 PUSH2 0x149 DUP6 DUP3 DUP7 ADD PUSH2 0x101 JUMP JUMPDEST SWAP2 POP POP SWAP3 POP SWAP3 SWAP1 POP JUMP JUMPDEST PUSH2 0xD47 DUP1 PUSH2 0x160 PUSH0 CODECOPY PUSH0 RETURN INVALID PUSH1 0x80 PUSH1 0x40 MSTORE CALLVALUE DUP1 ISZERO PUSH2 0xF JUMPI PUSH0 DUP1 REVERT JUMPDEST POP PUSH1 0x4 CALLDATASIZE LT PUSH2 0x86 JUMPI PUSH0 CALLDATALOAD PUSH1 0xE0 SHR DUP1 PUSH4 0x653F6C72 GT PUSH2 0x59 JUMPI DUP1 PUSH4 0x653F6C72 EQ PUSH2 0x103 JUMPI DUP1 PUSH4 0x9C8F9F23 EQ PUSH2 0x121 JUMPI DUP1 PUSH4 0x9CD441DA EQ PUSH2 0x13D JUMPI DUP1 PUSH4 0xB8C876B1 EQ PUSH2 0x159 JUMPI PUSH2 0x86 JUMP JUMPDEST DUP1 PUSH4 0x902F1AC EQ PUSH2 0x8A JUMPI DUP1 PUSH4 0xFC63D10 EQ PUSH2 0xA9 JUMPI DUP1 PUSH4 0x439702AF EQ PUSH2 0xC7 JUMPI DUP1 PUSH4 0x5F64B55B EQ PUSH2 0xE5 JUMPI JUMPDEST PUSH0 DUP1 REVERT JUMPDEST PUSH2 0x92 PUSH2 0x189 JUMP JUMPDEST PUSH1 0x40 MLOAD PUSH2 0xA0 SWAP3 SWAP2 SWAP1 PUSH2 0x80A JUMP JUMPDEST PUSH1 0x40 MLOAD DUP1 SWAP2 SUB SWAP1 RETURN JUMPDEST PUSH2 0xB1 PUSH2 0x199 JUMP JUMPDEST PUSH1 0x40 MLOAD PUSH2 0xBE SWAP2 SWAP1 PUSH2 0x8AB JUMP JUMPDEST PUSH1 0x40 MLOAD DUP1 SWAP2 SUB SWAP1 RETURN JUMPDEST PUSH2 0xCF PUSH2 0x1BC JUMP JUMPDEST PUSH1 0x40 MLOAD PUSH2 0xDC SWAP2 SWAP1 PUSH2 0x8C4 JUMP JUMPDEST PUSH1 0x40 MLOAD DUP1 SWAP2 SUB SWAP1 RETURN JUMPDEST PUSH2 0xED PUSH2 0x1C2 JUMP JUMPDEST PUSH1 0x40 MLOAD PUSH2 0xFA SWAP2 SWAP1 PUSH2 0x8AB JUMP JUMPDEST PUSH1 0x40 MLOAD DUP1 SWAP2 SUB SWAP1 RETURN JUMPDEST PUSH2 0x10B PUSH2 0x1E7 JUMP JUMPDEST PUSH1 0x40 MLOAD PUSH2 0x118 SWAP2 SWAP1 PUSH2 0x8C4 JUMP JUMPDEST PUSH1 0x40 MLOAD DUP1 SWAP2 SUB SWAP1 RETURN JUMPDEST PUSH2 0x13B PUSH1 0x4 DUP1 CALLDATASIZE SUB DUP2 ADD SWAP1 PUSH2 0x136 SWAP2 SWAP1 PUSH2 0x90B JUMP JUMPDEST PUSH2 0x1ED JUMP JUMPDEST STOP JUMPDEST PUSH2 0x157 PUSH1 0x4 DUP1 CALLDATASIZE SUB DUP2 ADD SWAP1 PUSH2 0x152 SWAP2 SWAP1 PUSH2 0x936 JUMP JUMPDEST PUSH2 0x531 JUMP JUMPDEST STOP JUMPDEST PUSH2 0x173 PUSH1 0x4 DUP1 CALLDATASIZE SUB DUP2 ADD SWAP1 PUSH2 0x16E SWAP2 SWAP1 PUSH2 0x9AF JUMP JUMPDEST PUSH2 0x7DD JUMP JUMPDEST PUSH1 0x40 MLOAD PUSH2 0x180 SWAP2 SWAP1 PUSH2 0x8C4 JUMP JUMPDEST PUSH1 0x40 MLOAD DUP1 SWAP2 SUB SWAP1 RETURN JUMPDEST PUSH0 DUP1 PUSH1 0x2 SLOAD PUSH1 0x3 SLOAD SWAP2 POP SWAP2 POP SWAP1 SWAP2 JUMP JUMPDEST PUSH0 DUP1 SLOAD SWAP1 PUSH2 0x100 EXP SWAP1 DIV PUSH20 0xFFFFFFFFFFFFFFFFFFFFFFFFFFFFFFFFFFFFFFFF AND DUP2 JUMP JUMPDEST PUSH1 0x3 SLOAD DUP2 JUMP JUMPDEST PUSH1 0x1 PUSH0 SWAP1 SLOAD SWAP1 PUSH2 0x100 EXP SWAP1 DIV PUSH20 0xFFFFFFFFFFFFFFFFFFFFFFFFFFFFFFFFFFFFFFFF AND DUP2 JUMP JUMPDEST PUSH1 0x2 SLOAD DUP2 JUMP JUMPDEST DUP1 PUSH1 0x4 PUSH0 CALLER PUSH20 0xFFFFFFFFFFFFFFFFFFFFFFFFFFFFFFFFFFFFFFFF AND PUSH20 0xFFFFFFFFFFFFFFFFFFFFFFFFFFFFFFFFFFFFFFFF AND DUP2 MSTORE PUSH1 0x20 ADD SWAP1 DUP2 MSTORE PUSH1 0x20 ADD PUSH0 KECCAK256 SLOAD LT ISZERO PUSH2 0x26D JUMPI PUSH1 0x40 MLOAD PUSH32 0x8C379A000000000000000000000000000000000000000000000000000000000 DUP2 MSTORE PUSH1 0x4 ADD PUSH2 0x264 SWAP1 PUSH2 0xA34 JUMP JUMPDEST PUSH1 0x40 MLOAD DUP1 SWAP2 SUB SWAP1 REVERT JUMPDEST PUSH0 PUSH1 0x4 PUSH0 CALLER PUSH20 0xFFFFFFFFFFFFFFFFFFFFFFFFFFFFFFFFFFFFFFFF AND PUSH20 0xFFFFFFFFFFFFFFFFFFFFFFFFFFFFFFFFFFFFFFFF AND DUP2 MSTORE PUSH1 0x20 ADD SWAP1 DUP2 MSTORE PUSH1 0x20 ADD PUSH0 KECCAK256 SLOAD PUSH1 0x2 SLOAD DUP4 PUSH2 0x2BA SWAP2 SWAP1 PUSH2 0xA7F JUMP JUMPDEST PUSH2 0x2C4 SWAP2 SWAP1 PUSH2 0xAED JUMP JUMPDEST SWAP1 POP PUSH0 PUSH1 0x4 PUSH0 CALLER PUSH20 0xFFFFFFFFFFFFFFFFFFFFFFFFFFFFFFFFFFFFFFFF AND PUSH20 0xFFFFFFFFFFFFFFFFFFFFFFFFFFFFFFFFFFFFFFFF AND DUP2 MSTORE PUSH1 0x20 ADD SWAP1 DUP2 MSTORE PUSH1 0x20 ADD PUSH0 KECCAK256 SLOAD PUSH1 0x3 SLOAD DUP5 PUSH2 0x313 SWAP2 SWAP1 PUSH2 0xA7F JUMP JUMPDEST PUSH2 0x31D SWAP2 SWAP1 PUSH2 0xAED JUMP JUMPDEST SWAP1 POP DUP3 PUSH1 0x4 PUSH0 CALLER PUSH20 0xFFFFFFFFFFFFFFFFFFFFFFFFFFFFFFFFFFFFFFFF AND PUSH20 0xFFFFFFFFFFFFFFFFFFFFFFFFFFFFFFFFFFFFFFFF AND DUP2 MSTORE PUSH1 0x20 ADD SWAP1 DUP2 MSTORE PUSH1 0x20 ADD PUSH0 KECCAK256 PUSH0 DUP3 DUP3 SLOAD PUSH2 0x36B SWAP2 SWAP1 PUSH2 0xB1D JUMP JUMPDEST SWAP3 POP POP DUP2 SWAP1 SSTORE POP DUP2 PUSH1 0x2 PUSH0 DUP3 DUP3 SLOAD PUSH2 0x383 SWAP2 SWAP1 PUSH2 0xB1D JUMP JUMPDEST SWAP3 POP POP DUP2 SWAP1 SSTORE POP DUP1 PUSH1 0x3 PUSH0 DUP3 DUP3 SLOAD PUSH2 0x39B SWAP2 SWAP1 PUSH2 0xB1D JUMP JUMPDEST SWAP3 POP POP DUP2 SWAP1 SSTORE POP PUSH0 DUP1 SLOAD SWAP1 PUSH2 0x100 EXP SWAP1 DIV PUSH20 0xFFFFFFFFFFFFFFFFFFFFFFFFFFFFFFFFFFFFFFFF AND PUSH20 0xFFFFFFFFFFFFFFFFFFFFFFFFFFFFFFFFFFFFFFFF AND PUSH4 0xA9059CBB CALLER DUP5 PUSH1 0x40 MLOAD DUP4 PUSH4 0xFFFFFFFF AND PUSH1 0xE0 SHL DUP2 MSTORE PUSH1 0x4 ADD PUSH2 0x3FC SWAP3 SWAP2 SWAP1 PUSH2 0xB5F JUMP JUMPDEST PUSH1 0x20 PUSH1 0x40 MLOAD DUP1 DUP4 SUB DUP2 PUSH0 DUP8 GAS CALL ISZERO DUP1 ISZERO PUSH2 0x418 JUMPI RETURNDATASIZE PUSH0 DUP1 RETURNDATACOPY RETURNDATASIZE PUSH0 REVERT JUMPDEST POP POP POP POP PUSH1 0x40 MLOAD RETURNDATASIZE PUSH1 0x1F NOT PUSH1 0x1F DUP3 ADD AND DUP3 ADD DUP1 PUSH1 0x40 MSTORE POP DUP2 ADD SWAP1 PUSH2 0x43C SWAP2 SWAP1 PUSH2 0xBBB JUMP JUMPDEST POP PUSH1 0x1 PUSH0 SWAP1 SLOAD SWAP1 PUSH2 0x100 EXP SWAP1 DIV PUSH20 0xFFFFFFFFFFFFFFFFFFFFFFFFFFFFFFFFFFFFFFFF AND PUSH20 0xFFFFFFFFFFFFFFFFFFFFFFFFFFFFFFFFFFFFFFFF AND PUSH4 0xA9059CBB CALLER DUP4 PUSH1 0x40 MLOAD DUP4 PUSH4 0xFFFFFFFF AND PUSH1 0xE0 SHL DUP2 MSTORE PUSH1 0x4 ADD PUSH2 0x499 SWAP3 SWAP2 SWAP1 PUSH2 0xB5F JUMP JUMPDEST PUSH1 0x20 PUSH1 0x40 MLOAD DUP1 DUP4 SUB DUP2 PUSH0 DUP8 GAS CALL ISZERO DUP1 ISZERO PUSH2 0x4B5 JUMPI RETURNDATASIZE PUSH0 DUP1 RETURNDATACOPY RETURNDATASIZE PUSH0 REVERT JUMPDEST POP POP POP POP PUSH1 0x40 MLOAD RETURNDATASIZE PUSH1 0x1F NOT PUSH1 0x1F DUP3 ADD AND DUP3 ADD DUP1 PUSH1 0x40 MSTORE POP DUP2 ADD SWAP1 PUSH2 0x4D9 SWAP2 SWAP1 PUSH2 0xBBB JUMP JUMPDEST POP CALLER PUSH20 0xFFFFFFFFFFFFFFFFFFFFFFFFFFFFFFFFFFFFFFFF AND PUSH32 0x1DC8BB69DF2B8E91FBDCBFCF93D951B3F0000F085A95FE3F7946D6161439245D DUP4 DUP4 DUP7 PUSH1 0x40 MLOAD PUSH2 0x524 SWAP4 SWAP3 SWAP2 SWAP1 PUSH2 0xBE6 JUMP JUMPDEST PUSH1 0x40 MLOAD DUP1 SWAP2 SUB SWAP1 LOG2 POP POP POP JUMP JUMPDEST PUSH0 DUP3 GT DUP1 ISZERO PUSH2 0x53F JUMPI POP PUSH0 DUP2 GT JUMPDEST PUSH2 0x57E JUMPI PUSH1 0x40 MLOAD PUSH32 0x8C379A000000000000000000000000000000000000000000000000000000000 DUP2 MSTORE PUSH1 0x4 ADD PUSH2 0x575 SWAP1 PUSH2 0xC8B JUMP JUMPDEST PUSH1 0x40 MLOAD DUP1 SWAP2 SUB SWAP1 REVERT JUMPDEST PUSH0 DUP1 SLOAD SWAP1 PUSH2 0x100 EXP SWAP1 DIV PUSH20 0xFFFFFFFFFFFFFFFFFFFFFFFFFFFFFFFFFFFFFFFF AND PUSH20 0xFFFFFFFFFFFFFFFFFFFFFFFFFFFFFFFFFFFFFFFF AND PUSH4 0x23B872DD CALLER ADDRESS DUP6 PUSH1 0x40 MLOAD DUP5 PUSH4 0xFFFFFFFF AND PUSH1 0xE0 SHL DUP2 MSTORE PUSH1 0x4 ADD PUSH2 0x5DA SWAP4 SWAP3 SWAP2 SWAP1 PUSH2 0xCA9 JUMP JUMPDEST PUSH1 0x20 PUSH1 0x40 MLOAD DUP1 DUP4 SUB DUP2 PUSH0 DUP8 GAS CALL ISZERO DUP1 ISZERO PUSH2 0x5F6 JUMPI RETURNDATASIZE PUSH0 DUP1 RETURNDATACOPY RETURNDATASIZE PUSH0 REVERT JUMPDEST POP POP POP POP PUSH1 0x40 MLOAD RETURNDATASIZE PUSH1 0x1F NOT PUSH1 0x1F DUP3 ADD AND DUP3 ADD DUP1 PUSH1 0x40 MSTORE POP DUP2 ADD SWAP1 PUSH2 0x61A SWAP2 SWAP1 PUSH2 0xBBB JUMP JUMPDEST POP PUSH1 0x1 PUSH0 SWAP1 SLOAD SWAP1 PUSH2 0x100 EXP SWAP1 DIV PUSH20 0xFFFFFFFFFFFFFFFFFFFFFFFFFFFFFFFFFFFFFFFF AND PUSH20 0xFFFFFFFFFFFFFFFFFFFFFFFFFFFFFFFFFFFFFFFF AND PUSH4 0x23B872DD CALLER ADDRESS DUP5 PUSH1 0x40 MLOAD DUP5 PUSH4 0xFFFFFFFF AND PUSH1 0xE0 SHL DUP2 MSTORE PUSH1 0x4 ADD PUSH2 0x679 SWAP4 SWAP3 SWAP2 SWAP1 PUSH2 0xCA9 JUMP JUMPDEST PUSH1 0x20 PUSH1 0x40 MLOAD DUP1 DUP4 SUB DUP2 PUSH0 DUP8 GAS CALL ISZERO DUP1 ISZERO PUSH2 0x695 JUMPI RETURNDATASIZE PUSH0 DUP1 RETURNDATACOPY RETURNDATASIZE PUSH0 REVERT JUMPDEST POP POP POP POP PUSH1 0x40 MLOAD RETURNDATASIZE PUSH1 0x1F NOT PUSH1 0x1F DUP3 ADD AND DUP3 ADD DUP1 PUSH1 0x40 MSTORE POP DUP2 ADD SWAP1 PUSH2 0x6B9 SWAP2 SWAP1 PUSH2 0xBBB JUMP JUMPDEST POP PUSH0 DUP1 PUSH1 0x2 SLOAD EQ DUP1 ISZERO PUSH2 0x6CD JUMPI POP PUSH0 PUSH1 0x3 SLOAD EQ JUMPDEST ISZERO PUSH2 0x6E5 JUMPI DUP2 DUP4 PUSH2 0x6DE SWAP2 SWAP1 PUSH2 0xCDE JUMP JUMPDEST SWAP1 POP PUSH2 0x703 JUMP JUMPDEST PUSH1 0x3 SLOAD PUSH1 0x2 SLOAD DUP5 PUSH2 0x6F6 SWAP2 SWAP1 PUSH2 0xA7F JUMP JUMPDEST PUSH2 0x700 SWAP2 SWAP1 PUSH2 0xAED JUMP JUMPDEST SWAP1 POP JUMPDEST DUP3 PUSH1 0x2 PUSH0 DUP3 DUP3 SLOAD PUSH2 0x714 SWAP2 SWAP1 PUSH2 0xCDE JUMP JUMPDEST SWAP3 POP POP DUP2 SWAP1 SSTORE POP DUP2 PUSH1 0x3 PUSH0 DUP3 DUP3 SLOAD PUSH2 0x72C SWAP2 SWAP1 PUSH2 0xCDE JUMP JUMPDEST SWAP3 POP POP DUP2 SWAP1 SSTORE POP DUP1 PUSH1 0x4 PUSH0 CALLER PUSH20 0xFFFFFFFFFFFFFFFFFFFFFFFFFFFFFFFFFFFFFFFF AND PUSH20 0xFFFFFFFFFFFFFFFFFFFFFFFFFFFFFFFFFFFFFFFF AND DUP2 MSTORE PUSH1 0x20 ADD SWAP1 DUP2 MSTORE PUSH1 0x20 ADD PUSH0 KECCAK256 PUSH0 DUP3 DUP3 SLOAD PUSH2 0x77F SWAP2 SWAP1 PUSH2 0xCDE JUMP JUMPDEST SWAP3 POP POP DUP2 SWAP1 SSTORE POP CALLER PUSH20 0xFFFFFFFFFFFFFFFFFFFFFFFFFFFFFFFFFFFFFFFF AND PUSH32 0x64B83944E79C3CE8D4C297411DE637C3E102D064677AAC0C163976EBDCD6F50E DUP5 DUP5 DUP5 PUSH1 0x40 MLOAD PUSH2 0x7D0 SWAP4 SWAP3 SWAP2 SWAP1 PUSH2 0xBE6 JUMP JUMPDEST PUSH1 0x40 MLOAD DUP1 SWAP2 SUB SWAP1 LOG2 POP POP POP JUMP JUMPDEST PUSH1 0x4 PUSH1 0x20 MSTORE DUP1 PUSH0 MSTORE PUSH1 0x40 PUSH0 KECCAK256 PUSH0 SWAP2 POP SWAP1 POP SLOAD DUP2 JUMP JUMPDEST PUSH0 DUP2 SWAP1 POP SWAP2 SWAP1 POP JUMP JUMPDEST PUSH2 0x804 DUP2 PUSH2 0x7F2 JUMP JUMPDEST DUP3 MSTORE POP POP JUMP JUMPDEST PUSH0 PUSH1 0x40 DUP3 ADD SWAP1 POP PUSH2 0x81D PUSH0 DUP4 ADD DUP6 PUSH2 0x7FB JUMP JUMPDEST PUSH2 0x82A PUSH1 0x20 DUP4 ADD DUP5 PUSH2 0x7FB JUMP JUMPDEST SWAP4 SWAP3 POP POP POP JUMP JUMPDEST PUSH0 PUSH20 0xFFFFFFFFFFFFFFFFFFFFFFFFFFFFFFFFFFFFFFFF DUP3 AND SWAP1 POP SWAP2 SWAP1 POP JUMP JUMPDEST PUSH0 DUP2 SWAP1 POP SWAP2 SWAP1 POP JUMP JUMPDEST PUSH0 PUSH2 0x873 PUSH2 0x86E PUSH2 0x869 DUP5 PUSH2 0x831 JUMP JUMPDEST PUSH2 0x850 JUMP JUMPDEST PUSH2 0x831 JUMP JUMPDEST SWAP1 POP SWAP2 SWAP1 POP JUMP JUMPDEST PUSH0 PUSH2 0x884 DUP3 PUSH2 0x859 JUMP JUMPDEST SWAP1 POP SWAP2 SWAP1 POP JUMP JUMPDEST PUSH0 PUSH2 0x895 DUP3 PUSH2 0x87A JUMP JUMPDEST SWAP1 POP SWAP2 SWAP1 POP JUMP JUMPDEST PUSH2 0x8A5 DUP2 PUSH2 0x88B JUMP JUMPDEST DUP3 MSTORE POP POP JUMP JUMPDEST PUSH0 PUSH1 0x20 DUP3 ADD SWAP1 POP PUSH2 0x8BE PUSH0 DUP4 ADD DUP5 PUSH2 0x89C JUMP JUMPDEST SWAP3 SWAP2 POP POP JUMP JUMPDEST PUSH0 PUSH1 0x20 DUP3 ADD SWAP1 POP PUSH2 0x8D7 PUSH0 DUP4 ADD DUP5 PUSH2 0x7FB JUMP JUMPDEST SWAP3 SWAP2 POP POP JUMP JUMPDEST PUSH0 DUP1 REVERT JUMPDEST PUSH2 0x8EA DUP2 PUSH2 0x7F2 JUMP JUMPDEST DUP2 EQ PUSH2 0x8F4 JUMPI PUSH0 DUP1 REVERT JUMPDEST POP JUMP JUMPDEST PUSH0 DUP2 CALLDATALOAD SWAP1 POP PUSH2 0x905 DUP2 PUSH2 0x8E1 JUMP JUMPDEST SWAP3 SWAP2 POP POP JUMP JUMPDEST PUSH0 PUSH1 0x20 DUP3 DUP5 SUB SLT ISZERO PUSH2 0x920 JUMPI PUSH2 0x91F PUSH2 0x8DD JUMP JUMPDEST JUMPDEST PUSH0 PUSH2 0x92D DUP5 DUP3 DUP6 ADD PUSH2 0x8F7 JUMP JUMPDEST SWAP2 POP POP SWAP3 SWAP2 POP POP JUMP JUMPDEST PUSH0 DUP1 PUSH1 0x40 DUP4 DUP6 SUB SLT ISZERO PUSH2 0x94C JUMPI PUSH2 0x94B PUSH2 0x8DD JUMP JUMPDEST JUMPDEST PUSH0 PUSH2 0x959 DUP6 DUP3 DUP7 ADD PUSH2 0x8F7 JUMP JUMPDEST SWAP3 POP POP PUSH1 0x20 PUSH2 0x96A DUP6 DUP3 DUP7 ADD PUSH2 0x8F7 JUMP JUMPDEST SWAP2 POP POP SWAP3 POP SWAP3 SWAP1 POP JUMP JUMPDEST PUSH0 PUSH2 0x97E DUP3 PUSH2 0x831 JUMP JUMPDEST SWAP1 POP SWAP2 SWAP1 POP JUMP JUMPDEST PUSH2 0x98E DUP2 PUSH2 0x974 JUMP JUMPDEST DUP2 EQ PUSH2 0x998 JUMPI PUSH0 DUP1 REVERT JUMPDEST POP JUMP JUMPDEST PUSH0 DUP2 CALLDATALOAD SWAP1 POP PUSH2 0x9A9 DUP2 PUSH2 0x985 JUMP JUMPDEST SWAP3 SWAP2 POP POP JUMP JUMPDEST PUSH0 PUSH1 0x20 DUP3 DUP5 SUB SLT ISZERO PUSH2 0x9C4 JUMPI PUSH2 0x9C3 PUSH2 0x8DD JUMP JUMPDEST JUMPDEST PUSH0 PUSH2 0x9D1 DUP5 DUP3 DUP6 ADD PUSH2 0x99B JUMP JUMPDEST SWAP2 POP POP SWAP3 SWAP2 POP POP JUMP JUMPDEST PUSH0 DUP3 DUP3 MSTORE PUSH1 0x20 DUP3 ADD SWAP1 POP SWAP3 SWAP2 POP POP JUMP JUMPDEST PUSH32 0x4E6F7420656E6F756768206C6971756964697479000000000000000000000000 PUSH0 DUP3 ADD MSTORE POP JUMP JUMPDEST PUSH0 PUSH2 0xA1E PUSH1 0x14 DUP4 PUSH2 0x9DA JUMP JUMPDEST SWAP2 POP PUSH2 0xA29 DUP3 PUSH2 0x9EA JUMP JUMPDEST PUSH1 0x20 DUP3 ADD SWAP1 POP SWAP2 SWAP1 POP JUMP JUMPDEST PUSH0 PUSH1 0x20 DUP3 ADD SWAP1 POP DUP2 DUP2 SUB PUSH0 DUP4 ADD MSTORE PUSH2 0xA4B DUP2 PUSH2 0xA12 JUMP JUMPDEST SWAP1 POP SWAP2 SWAP1 POP JUMP JUMPDEST PUSH32 0x4E487B7100000000000000000000000000000000000000000000000000000000 PUSH0 MSTORE PUSH1 0x11 PUSH1 0x4 MSTORE PUSH1 0x24 PUSH0 REVERT JUMPDEST PUSH0 PUSH2 0xA89 DUP3 PUSH2 0x7F2 JUMP JUMPDEST SWAP2 POP PUSH2 0xA94 DUP4 PUSH2 0x7F2 JUMP JUMPDEST SWAP3 POP DUP3 DUP3 MUL PUSH2 0xAA2 DUP2 PUSH2 0x7F2 JUMP JUMPDEST SWAP2 POP DUP3 DUP3 DIV DUP5 EQ DUP4 ISZERO OR PUSH2 0xAB9 JUMPI PUSH2 0xAB8 PUSH2 0xA52 JUMP JUMPDEST JUMPDEST POP SWAP3 SWAP2 POP POP JUMP JUMPDEST PUSH32 0x4E487B7100000000000000000000000000000000000000000000000000000000 PUSH0 MSTORE PUSH1 0x12 PUSH1 0x4 MSTORE PUSH1 0x24 PUSH0 REVERT JUMPDEST PUSH0 PUSH2 0xAF7 DUP3 PUSH2 0x7F2 JUMP JUMPDEST SWAP2 POP PUSH2 0xB02 DUP4 PUSH2 0x7F2 JUMP JUMPDEST SWAP3 POP DUP3 PUSH2 0xB12 JUMPI PUSH2 0xB11 PUSH2 0xAC0 JUMP JUMPDEST JUMPDEST DUP3 DUP3 DIV SWAP1 POP SWAP3 SWAP2 POP POP JUMP JUMPDEST PUSH0 PUSH2 0xB27 DUP3 PUSH2 0x7F2 JUMP JUMPDEST SWAP2 POP PUSH2 0xB32 DUP4 PUSH2 0x7F2 JUMP JUMPDEST SWAP3 POP DUP3 DUP3 SUB SWAP1 POP DUP2 DUP2 GT ISZERO PUSH2 0xB4A JUMPI PUSH2 0xB49 PUSH2 0xA52 JUMP JUMPDEST JUMPDEST SWAP3 SWAP2 POP POP JUMP JUMPDEST PUSH2 0xB59 DUP2 PUSH2 0x974 JUMP JUMPDEST DUP3 MSTORE POP POP JUMP JUMPDEST PUSH0 PUSH1 0x40 DUP3 ADD SWAP1 POP PUSH2 0xB72 PUSH0 DUP4 ADD DUP6 PUSH2 0xB50 JUMP JUMPDEST PUSH2 0xB7F PUSH1 0x20 DUP4 ADD DUP5 PUSH2 0x7FB JUMP JUMPDEST SWAP4 SWAP3 POP POP POP JUMP JUMPDEST PUSH0 DUP2 ISZERO ISZERO SWAP1 POP SWAP2 SWAP1 POP JUMP JUMPDEST PUSH2 0xB9A DUP2 PUSH2 0xB86 JUMP JUMPDEST DUP2 EQ PUSH2 0xBA4 JUMPI PUSH0 DUP1 REVERT JUMPDEST POP JUMP JUMPDEST PUSH0 DUP2 MLOAD SWAP1 POP PUSH2 0xBB5 DUP2 PUSH2 0xB91 JUMP JUMPDEST SWAP3 SWAP2 POP POP JUMP JUMPDEST PUSH0 PUSH1 0x20 DUP3 DUP5 SUB SLT ISZERO PUSH2 0xBD0 JUMPI PUSH2 0xBCF PUSH2 0x8DD JUMP JUMPDEST JUMPDEST PUSH0 PUSH2 0xBDD DUP5 DUP3 DUP6 ADD PUSH2 0xBA7 JUMP JUMPDEST SWAP2 POP POP SWAP3 SWAP2 POP POP JUMP JUMPDEST PUSH0 PUSH1 0x60 DUP3 ADD SWAP1 POP PUSH2 0xBF9 PUSH0 DUP4 ADD DUP7 PUSH2 0x7FB JUMP JUMPDEST PUSH2 0xC06 PUSH1 0x20 DUP4 ADD DUP6 PUSH2 0x7FB JUMP JUMPDEST PUSH2 0xC13 PUSH1 0x40 DUP4 ADD DUP5 PUSH2 0x7FB JUMP JUMPDEST SWAP5 SWAP4 POP POP POP POP JUMP JUMPDEST PUSH32 0x416D6F756E7473206D7573742062652067726561746572207468616E207A6572 PUSH0 DUP3 ADD MSTORE PUSH32 0x6F00000000000000000000000000000000000000000000000000000000000000 PUSH1 0x20 DUP3 ADD MSTORE POP JUMP JUMPDEST PUSH0 PUSH2 0xC75 PUSH1 0x21 DUP4 PUSH2 0x9DA JUMP JUMPDEST SWAP2 POP PUSH2 0xC80 DUP3 PUSH2 0xC1B JUMP JUMPDEST PUSH1 0x40 DUP3 ADD SWAP1 POP SWAP2 SWAP1 POP JUMP JUMPDEST PUSH0 PUSH1 0x20 DUP3 ADD SWAP1 POP DUP2 DUP2 SUB PUSH0 DUP4 ADD MSTORE PUSH2 0xCA2 DUP2 PUSH2 0xC69 JUMP JUMPDEST SWAP1 POP SWAP2 SWAP1 POP JUMP JUMPDEST PUSH0 PUSH1 0x60 DUP3 ADD SWAP1 POP PUSH2 0xCBC PUSH0 DUP4 ADD DUP7 PUSH2 0xB50 JUMP JUMPDEST PUSH2 0xCC9 PUSH1 0x20 DUP4 ADD DUP6 PUSH2 0xB50 JUMP JUMPDEST PUSH2 0xCD6 PUSH1 0x40 DUP4 ADD DUP5 PUSH2 0x7FB JUMP JUMPDEST SWAP5 SWAP4 POP POP POP POP JUMP JUMPDEST PUSH0 PUSH2 0xCE8 DUP3 PUSH2 0x7F2 JUMP JUMPDEST SWAP2 POP PUSH2 0xCF3 DUP4 PUSH2 0x7F2 JUMP JUMPDEST SWAP3 POP DUP3 DUP3 ADD SWAP1 POP DUP1 DUP3 GT ISZERO PUSH2 0xD0B JUMPI PUSH2 0xD0A PUSH2 0xA52 JUMP JUMPDEST JUMPDEST SWAP3 SWAP2 POP POP JUMP INVALID LOG2 PUSH5 0x6970667358 0x22 SLT KECCAK256 TSTORE ADD RETURNDATASIZE EXTCODESIZE PUSH27 0xBD381A3B17007378C57A48BACE84C3924942F57000F510FDCCE47F PUSH5 0x736F6C6343 STOP ADDMOD BYTE STOP CALLER "
				},
				"gasEstimates": {
					"creation": {
						"codeDepositCost": "679800",
						"executionCost": "infinite",
						"totalCost": "infinite"
					},
					"external": {
						"addLiquidity(uint256,uint256)": "infinite",
						"getReserves()": "infinite",
						"liquidity(address)": "2868",
						"removeLiquidity(uint256)": "infinite",
						"tokenA()": "infinite",
						"tokenB()": "infinite",
						"totalTokenA()": "2425",
						"totalTokenB()": "2470"
					}
				},
				"methodIdentifiers": {
					"addLiquidity(uint256,uint256)": "9cd441da",
					"getReserves()": "0902f1ac",
					"liquidity(address)": "b8c876b1",
					"removeLiquidity(uint256)": "9c8f9f23",
					"tokenA()": "0fc63d10",
					"tokenB()": "5f64b55b",
					"totalTokenA()": "653f6c72",
					"totalTokenB()": "439702af"
				}
			},
			"storageLayout": {
				"storage": [
					{
						"astId": 396,
						"contract": "LiquidityPoolFactory/LiquidityPoolFactory.sol:LiquidityPool",
						"label": "tokenA",
						"offset": 0,
						"slot": "0",
						"type": "t_contract(IERC20)225"
					},
					{
						"astId": 399,
						"contract": "LiquidityPoolFactory/LiquidityPoolFactory.sol:LiquidityPool",
						"label": "tokenB",
						"offset": 0,
						"slot": "1",
						"type": "t_contract(IERC20)225"
					},
					{
						"astId": 401,
						"contract": "LiquidityPoolFactory/LiquidityPoolFactory.sol:LiquidityPool",
						"label": "totalTokenA",
						"offset": 0,
						"slot": "2",
						"type": "t_uint256"
					},
					{
						"astId": 403,
						"contract": "LiquidityPoolFactory/LiquidityPoolFactory.sol:LiquidityPool",
						"label": "totalTokenB",
						"offset": 0,
						"slot": "3",
						"type": "t_uint256"
					},
					{
						"astId": 407,
						"contract": "LiquidityPoolFactory/LiquidityPoolFactory.sol:LiquidityPool",
						"label": "liquidity",
						"offset": 0,
						"slot": "4",
						"type": "t_mapping(t_address,t_uint256)"
					}
				],
				"types": {
					"t_address": {
						"encoding": "inplace",
						"label": "address",
						"numberOfBytes": "20"
					},
					"t_contract(IERC20)225": {
						"encoding": "inplace",
						"label": "contract IERC20",
						"numberOfBytes": "20"
					},
					"t_mapping(t_address,t_uint256)": {
						"encoding": "mapping",
						"key": "t_address",
						"label": "mapping(address => uint256)",
						"numberOfBytes": "32",
						"value": "t_uint256"
					},
					"t_uint256": {
						"encoding": "inplace",
						"label": "uint256",
						"numberOfBytes": "32"
					}
				}
			},
			"userdoc": {
				"kind": "user",
				"methods": {},
				"version": 1
			}
		}
	}
}